:100000000C9424010C9445010C9445010C94450179
:100010000C9445010C9445010C9445010C94450148
:100020000C9445010C9445010C9445010C94450138
:100030000C9445010C9445010C9445010C94450128
:100040000C9445010C9445010C9445010C94450118
:100050000C9445010C9445010C9445010C947C02D0
:100060000C9445010C9445010C9445010C944501F8
:100070000C9445010C9445010C9445010C944501E8
:100080000C9445010C9445010C9445010C944501D8
:100090000C9445010C9445010C9445010C944501C8
:1000A0000C9445010C9445010C9445010C944501B8
:1000B0000C9445010C9445010C9445010C944501A8
:1000C0000C9445010C9445010C9445010C94450198
:1000D0000C9445010C9445010C9445010C94450188
:1000E0000C9445010C946B010C94A0010C948401B8
:1000F0000C9477010C9473010C948E010C94800184
:100100000C9498010C947A010C94A5010C946F0145
:100110000C94A6010C9465010C949C010C948A012A
:100120000C94AA010C9492010000200023002600E8
:1001300029002C002F0032000001000003010601FD
:10014000090100000A0B02090C0D0E080703040147
:10015000000000000000000000000000000000009F
:10016000000000000000000000000000000012116C
:10017000100000000000000000000000000000006F
:100180000000000000000000000022002500280000
:100190002B002E003100340002010000050108018F
:1001A0000B0100002100240027002A002D00300050
:1001B000330001010000040107010A0105050505DE
:1001C000070508080808020202020A0A08080404CF
:1001D00004040101010101010101030303030303FD
:1001E0000303040707070C0C0C0C0C0C0C0C02028C
:1001F000020206060606060606060B0B0B0B0B0B89
:100200000B0B010210202008081020401020408015
:1002100002010201080402010102040810204080CA
:100220008040201008040201800402018040201058
:1002300008040201080402010102040810204080A1
:10024000010204081020408011241FBECFEFD1E22C
:10025000DEBFCDBF00E00CBF12E0A0E0B2E0EAEBF1
:10026000F7E000E00BBF02C007900D92A431B10788
:10027000D9F722E0A4E1B2E001C01D92AD31B2078E
:10028000E1F70E94C6020C94DB030C94000081503D
:10029000823108F05AC0E82FF0E08827ED5AFE4F6F
:1002A0008F4F0C94D3037301770165016B016F01CC
:1002B000A5017A01800184018A018E0192019801D1
:1002C0009C01A501A001A601AA01809180008F7761
:1002D000809380000895809180008F7DF9CF809178
:1002E0008000877FF5CF84B58F7784BD089584B56E
:1002F0008F7DFBCF8091B0008F778093B000089501
:100300008091B0008F7DF9CF809190008F7780939E
:1003100090000895809190008F7DF9CF809190009A
:10032000877FF5CF8091A0008F778093A0000895FC
:100330008091A0008F7DF9CF8091A000877FF5CFBD
:10034000809120018F778093200108958091200172
:100350008F7DF9CF80912001877FF5CFCF93DF93F9
:10036000282F30E0F901EE5BFE4F8491F901EE5F3A
:10037000FD4FD491F901E454FE4FC491CC23A1F078
:1003800081110E944701EC2FF0E0EE0FFF1FE85DA6
:10039000FE4FA591B491EC91ED2381E090E009F43A
:1003A00080E0DF91CF91089580E090E0FACF1F9335
:1003B000CF93DF93282F30E0F901EE5BFE4F84915D
:1003C000F901EE5FFD4FD491F901E454FE4FC49161
:1003D000CC23A9F0162F81110E944701EC2FF0E0E9
:1003E000EE0FFF1FE857FE4FA591B4918FB7F89419
:1003F000EC91111108C0D095DE23DC938FBFDF9103
:10040000CF911F910895DE2BF8CF3FB7F8948091DC
:10041000190290911A02A0911B02B0911C0226B5FC
:10042000A89B05C02F3F19F00196A11DB11D3FBF2C
:10043000BA2FA92F982F8827BC01CD01620F711DFB
:10044000811D911D42E0660F771F881F991F4A95F5
:10045000D1F708958F929F92AF92BF92CF92DF9281
:10046000EF92FF924B015C010E9405026B017C013F
:100470000E9405026C197D098E099F09683E734030
:1004800081059105A8F321E0821A9108A108B1081D
:1004900088EEC80E83E0D81EE11CF11C8114910483
:1004A000A104B10429F7FF90EF90DF90CF90BF90A7
:1004B000AF909F908F900895CF93DF93C6E0D2E0E6
:1004C0008881229661E00E94D70182E0C431D8077A
:1004D000B9F7DF91CF910895CF93DF93C6E0D2E0D3
:1004E0008881229660E00E94D70182E0C431D8075B
:1004F000B9F7DF91CF9108951F920F920FB60F9227
:1005000011242F933F938F939F93AF93BF93809129
:10051000150290911602A0911702B0911802309125
:10052000140223E0230F2D3758F50196A11DB11DAC
:10053000209314028093150290931602A093170241
:10054000B09318028091190290911A02A0911B0297
:10055000B0911C020196A11DB11D809319029093C8
:100560001A02A0931B02B0931C02BF91AF919F91FE
:100570008F913F912F910F900FBE0F901F90189564
:1005800026E8230F0296A11DB11DD2CF789484B521
:10059000826084BD84B5816084BD85B5826085BD7F
:1005A00085B5816085BD80916E00816080936E000D
:1005B00010928100809181008260809381008091FF
:1005C00081008160809381008091800081608093B0
:1005D00080008091B10084608093B1008091B00070
:1005E00081608093B000809191008260809391003F
:1005F0008091910081608093910080919000816052
:10060000809390008091A10082608093A1008091EE
:10061000A10081608093A1008091A00081608093FF
:10062000A0008091210182608093210180912101AD
:10063000816080932101809120018160809320015D
:1006400080917A00846080937A0080917A00826041
:1006500080937A0080917A00816080937A00809103
:100660007A00806880937A001092C100A0E0B2E026
:1006700026E032E08D919D919927FC01EE5FFD4FC0
:10068000449184549E4FFC0184918823C9F090E0EA
:10069000880F991FFC01EE55FE4FC591D491FC01C6
:1006A000E857FE4F659174919FB7F8948881E42FC5
:1006B000E0958E238883EB018881E823E8839FBF40
:1006C0002A173B07B9F624E132E0C6E0D2E089916F
:1006D00099919927FC01EE5FFD4F449184549E4F00
:1006E000FC018491882399F090E0880F991FFC0108
:1006F000EE55FE4FA591B491FC01E857FE4F859150
:1007000094918FB7F894EC91E42BEC938FBF2C1756
:100710003D07E9F60E946C0280E0E82E80E0F82EAA
:1007200082E10E94AE01892BC1F406E012E0F801DB
:1007300080810E5F1F4F61E00E94D70164EF71E07E
:1007400080E090E00E942A020C171D0781F7E11457
:10075000F10431F30E940000E3CF83E10E94AE0177
:10076000892BC9F406E010E00150110989F00E94BC
:100770005C026CE271E080E090E00E942A020E943C
:100780006C026CE271E080E090E00E942A02ECCF03
:100790000E945C02DCCF84E10E94AE01892BB9F695
:1007A0000E946C02D4CFEE0FFF1F881F8BBF0790F3
:0A07B000F691E02D1994F894FFCFA4
:1007BA0012001300140000000100020003000400EC
:0407CA000500060020
:00000001FF
