:020000040000FA
:100000000C9438010C9469010C9469010C946901F9
:100010000C9469010C9469010C9469010C946901B8
:100020000C9469010C9469010C9469010C946901A8
:100030000C9469010C9469010C9469010C94690198
:100040000C9469010C9469010C9469010C94690188
:100050000C9469010C9469010C9469010C941507C6
:100060000C9469010C9469010C9469010C94690168
:100070000C9469010C9469010C9469010C94690158
:100080000C9469010C9469010C9469010C94690148
:100090000C9469010C9469010C9469010C94690138
:1000A0000C9469010C9469010C9469010C94690128
:1000B0000C9469010C9469010C9469010C94690118
:1000C0000C9469010C9469010C9469010C94690108
:1000D0000C9469010C9469010C9469010C946901F8
:1000E0000C9469010C9453020C9480020C945B02F2
:1000F0000C948A020C944F020C94EC020C9449026A
:100100000C9468080C9489020C946E020C94DE0422
:100110000C9464020C9457020C942C030C947C02F3
:100120000C94EA080C940F070C9472020C9476025B
:100130000C948E020C94BB020C94DF040C94840289
:100140000C9468020C94FE010C945E0200002100E5
:10015000240027002A002D00300033000101000098
:10016000040107010A0100002200250028002B00DD
:100170002E003100340002010000050108010B01CE
:10018000000020002300260029002C002F00320050
:100190000001000003010601090105050505070529
:1001A00008080808020202020A0A080804040404F3
:1001B000010101010101010103030303030303031F
:1001C000040707070C0C0C0C0C0C0C0C02020202AE
:1001D00006060606060606060B0B0B0B0B0B0B0B97
:1001E0000102102020080810204010204080020149
:1001F000020108040201010204081020408080402E
:10020000201008040201800402018040201008042C
:1002100002010804020101020408102040800102CA
:1002200004081020408000000A0B02090C0D0E0883
:1002300007030401000000000000000000000000AF
:1002400000000000000000000000000000000000AE
:10025000000012111000000000000000000000006B
:100260000000000000000000000000006808EA082C
:1002700011241FBECFEFD1E2DEBFCDBF00E00CBF27
:1002800023E0A4E9B2E001C01D92A433B207E1F774
:1002900012E0A0E0B2E0E6E5F6E100E00BBF02C04C
:1002A00007900D92A439B107D9F711E0C7E3D1E067
:1002B00000E006C021970109802FFE010E94F2088C
:1002C000C633D10780E00807A9F70E945F070C94A6
:1002D000190B0C94000096E0899FD0011124A755BA
:1002E000BD4F90967C936E935F9791E091969C930F
:1002F0009197E0911603F0911703909115039923BC
:1003000039F0309751F0811108C08091C5021994DD
:10031000309719F05C968C91FACF0895CF92DF92C6
:10032000EF92FF920F931F9396E0899FF0011124A3
:10033000E755FD4F11A2278D30A12130310551F134
:1003400078F02230310509F451C02330310509F429
:1003500052C01F910F91FF90EF90DF90CF900895C2
:100360006623B9F361E070E00E946B012FB7F89447
:100370008091A5029091A602A091A702B091A80237
:100380002FBF8093010390930203A0930303B093C4
:100390000403DFCF9FB7F894C090A502D090A602C7
:1003A000E090A702F090A8029FBF00910103109176
:1003B00002032091030330910403C01AD10AE20A18
:1003C000F30A009113031091140330E020E00C15A0
:1003D0001D052E053F0550F462E070E01F910F915E
:1003E000FF90EF90DF90CF900C946B016111B1CF33
:1003F00063E070E0F3CF70E060E0F0CFAF92BF92C7
:10040000CF92DF92EF92FF920F931F93CF93DF93E0
:100410006C017B018B01040F151FEB015E01AE180F
:10042000BF08C017D10759F06991D601ED91FC9131
:100430000190F081E02DC6011995892B79F7C5014E
:10044000DF91CF911F910F91FF90EF90DF90CF90B0
:10045000BF90AF9008958150823108F05AC0E82FC4
:10046000F0E08827E95CFD4F8F4F0C94F2085702AB
:100470005B0249024F02530289025E026402680273
:100480006E02720276027C028002890284028A0273
:100490008E02809180008F778093800008958091F4
:1004A00080008F7DF9CF80918000877FF5CF84B564
:1004B0008F7784BD089584B58F7DFBCF8091B00088
:1004C0008F778093B00008958091B0008F7DF9CF31
:1004D000809190008F778093900008958091900094
:1004E0008F7DF9CF80919000877FF5CF8091A0001C
:1004F0008F778093A00008958091A0008F7DF9CF21
:100500008091A000877FF5CF809120018F77809325
:1005100020010895809120018F7DF9CF80912001E5
:10052000877FF5CFCF93DF93282F30E0F901EA5D85
:10053000FD4F8491F901E052FE4FD491F901E65646
:10054000FE4FC491CC23A1F081110E942B02EC2F0D
:10055000F0E0EE0FFF1FE058FE4FA591B491EC9133
:10056000ED2381E090E009F480E0DF91CF910895E0
:1005700080E090E0FACF862F0C9492021F93CF93E5
:10058000DF93282F30E0F901EA5DFD4F8491F901F6
:10059000E052FE4FD491F901E656FE4FC491CC23B0
:1005A000A9F0162F81110E942B02EC2FF0E0EE0F24
:1005B000FF1FEA59FE4FA591B4918FB7F894EC91C3
:1005C000111108C0D095DE23DC938FBFDF91CF914E
:1005D0001F910895DE2BF8CF862F642F0C94BE0256
:1005E000CF93DF9390E0FC01E052FE4F24918656BA
:1005F0009E4FFC0184918823C9F090E0880F991FD9
:10060000FC01E45BFE4FA591B491FC01EA59FE4F59
:10061000C591D49161110DC09FB7F8948C9120952C
:1006200082238C938881282328839FBFDF91CF91D9
:100630000895623051F49FB7F8943C91822F8095D1
:1006400083238C93E8812E2BEFCF8FB7F894EC9116
:100650002E2B2C938FBFEACF862F642F0C94F002A1
:100660006F927F928F929F92AF92BF92CF92DF92C2
:10067000EF92FF920F931F93CF93DF9381E08093CC
:1006800015038FB7F8944091A5025091A60260918E
:10069000A7027091A8028FBF809105039091060375
:1006A000A0910703B0910803481B590B6A0B7B0B01
:1006B0008091110390911203B0E0A0E08417950798
:1006C000A607B70708F01DC1C0E080910F03C81747
:1006D00060F4E0910B03F0910C03EC0FF11D62E06C
:1006E00080810E94F002CF5FF0CF712C812C912C81
:1006F0005401839480911003781608F05FC0072D91
:1007000010E0E0910D03F0910E03E00FF11F61E0A6
:1007100080810E94F002E0910D03F0910E03E00F42
:10072000F11F60E080810E94BE02D501C401072C48
:1007300004C0880F991FAA1FBB1F0A94D2F76C012F
:100740007C01E094F094612C80910F036816F8F41A
:10075000C62DD0E0E0910B03F0910C03EC0FFD1FD0
:1007600080810E9492022496CC0FDD1FC755DD4F79
:10077000892B41F4888199818C299D2999838883CB
:100780006394E2CF888199818E219F21F7CFE091F8
:100790000D03F0910E03E00FF11F61E080810E94D4
:1007A000BE0280910D0390910E03080F191F60E0A7
:1007B000F80180810E94F00273949CCFC9EAD2E0D4
:1007C000FE018FEF9FEF278D30A1232B21F4148E94
:1007D000968F858F11A2369622E0E53EF20799F7B3
:1007E000F12C96E0D92E80910F03F81608F050C036
:1007F000E12C0F2D10E0000F111F0F541D4F209101
:100800001003E21608F042C0F801608171810E2CDD
:1008100002C0769567950A94E2F7F29E9001112442
:100820002E0D311DE9EAF2E080E0458D568D24174A
:10083000350709F46AC08F5F36968A30B1F760FFDA
:1008400023C0E9EAF2E090E080E0448D411117C056
:10085000E0910903F0910A03E20FF31F4081D89E53
:10086000F001D99EF00D1124E755FD4F448F368FCE
:10087000258F10A2178E61E00E948E0105C001969F
:1008800036968A30910509F7E394B9CFF394ABCF4C
:1008900080E099A19111892F2696F2E0C53EDF07ED
:1008A000C1F79FB7F8944091A5025091A6026091BC
:1008B000A7027091A8029FBF4093050350930603BF
:1008C00060930703709308038823D9F08091CA02CC
:1008D0008823B9F08091C8029091C902019789F4E8
:1008E0008091C502DF91CF911F910F91FF90EF9002
:1008F000DF90CF90BF90AF909F908F907F906F9040
:1009000008951092150380E0EDCF6170B5CF3FB729
:10091000F8948091950290919602A0919702B091DF
:10092000980226B5A89B05C02F3F19F00196A11D7E
:10093000B11D3FBFBA2FA92F982F8827BC01CD0129
:10094000620F711D811D911D42E0660F771F881F88
:10095000991F4A95D1F708958F929F92AF92BF92B7
:10096000CF92DF92EF92FF924B015C010E948704CD
:100970006B017C010E9487046C197D098E099F0917
:10098000683E734081059105A8F321E0821A910821
:10099000A108B10888EEC80E83E0D81EE11CF11C46
:1009A00081149104A104B10429F7FF90EF90DF9026
:1009B000CF90BF90AF909F908F900895089590E052
:1009C00080E00895FC0101900020E9F73197AF0124
:1009D000481B590BBC0188E193E00C94FE01FC011B
:1009E00024813581FB014481558124173507E1F4C9
:1009F000FC0180819181FB01608171810097D1F0C0
:100A000061157105A1F4232BC1F0FC01808190E0F8
:100A100008C0232B91F0FB01808190E09195819596
:100A2000910921E0892B09F020E0822F08950E948E
:100A3000090BF7CF6115710561F721E0F6CF0F9330
:100A40001F93CF93DF93EC0188819981009759F030
:100A50002A813B812617370730F081E0DF91CF9163
:100A60001F910F9108958B016F5F7F4F0E941F0AA6
:100A7000009759F0998388831B830A832C813D81D9
:100A8000232B59F7FC011082E8CF80E0E7CFEF92EB
:100A9000FF920F931F93CF93DF931F921F92CDB7B7
:100AA000DEB78C0169831A82FC01E480F580FFEFD8
:100AB000EF1AFF0AB7010E941F05882381F0F80191
:100AC0002081318184819581BE016F5F7F4F820FCC
:100AD000931F0E94120BF801F582E48281E00F90CF
:100AE0000F90DF91CF911F910F91FF90EF9008959C
:100AF000FC0180819181009711F00C949609089572
:100B0000EF92FF920F931F93CF93DF93EC017B0142
:100B1000198218821B821A821D821C82FB0101909D
:100B20000020E9F731978F01061B170BB8010E94CF
:100B30001F0528813981811113C02115310519F054
:100B4000C9010E949609198218821D821C821B828B
:100B50001A82DF91CF911F910F91FF90EF9008952E
:100B60001D830C83B701C901DF91CF911F910F91B4
:100B7000FF90EF900C94120BCF93DF93EC0160E0A9
:100B80008E810E94BE0261E08E810E94BE0260E002
:100B90008E810E94BE028BE891E00197F1F7DF9110
:100BA000CF910895CF92DF92EF92FF920F931F9310
:100BB000CF93DF936C017C0187E0E80EF11CD0E05D
:100BC000C0E0062F10E0B8010C2E02C075956795A5
:100BD0000A94E2F76170F70181917F010E94BE02E1
:100BE0002196C430D10579F7C601DF91CF911F91CD
:100BF0000F91FF90EF90DF90CF900C94BC05CF92B7
:100C0000DF92EF92FF920F931F93CF93DF93EC014C
:100C1000F62E642F8C810E94BE028D818F3F19F0C9
:100C200060E00E94BE020F2D10E08F8584FF25C07A
:100C30006E0187E0C80ED11CF12CE12CB8010E2CFE
:100C400002C0759567950A94E2F76170F60181918B
:100C50006F010E94BE02FFEFEF1AFF0A88E0E8165C
:100C6000F10461F7CE01DF91CF911F910F91FF90B9
:100C7000EF90DF90CF900C94BC05B80184E075959F
:100C800067958A95E1F7CE010E94D2056F2DCE01BE
:100C9000DF91CF911F910F91FF90EF90DF90CF9058
:100CA0000C94D20540E0682F88E193E00C94FF0596
:100CB00081E00E9452068BE39FE10197F1F70895CE
:100CC000CF93DF93823029F490912703986090931B
:100CD000270380932B0310922C0380E480932D0331
:100CE00080E180932E0380E580932F0361E0809163
:100CF0001C030E94F00280911D038F3F19F061E0F8
:100D00000E94F00261E080911E030E94F002C8E19F
:100D1000D3E09E01285133408091270384FD0BC00E
:100D200084E090E021962817390744F461E08E8131
:100D30000E94F002EECF88E090E0F4CF8BE39DE0DC
:100D40000197F1F760E080911C030E94BE0260E011
:100D500080911E030E94BE0280911D038F3F19F0F7
:100D600060E00E94BE028091270384FD34C063E0EE
:100D700088E193E00E94D205CBE4D6E4CE0101974E
:100D8000F1F763E088E193E00E94D2052197F1F743
:100D900063E088E193E00E94D20583E592E0019749
:100DA000F1F762E088E193E00E94D2058091270389
:100DB00080620E94520684E0809328038CE00E94A7
:100DC00052060E94580682E08093290386E0DF9154
:100DD000CF910C94520680620E9452068BE496E4F6
:100DE0000197F1F78091270380620E94520683E504
:100DF00092E00197F1F78091270380620E945206EA
:100E0000D5CF90912B03891710F08FEF890FE82F22
:100E1000F0E0E85EFC4F848980680C94520641E063
:100E20000E94FF0581E090E008951F920F920FB697
:100E30000F9211242F933F938F939F93AF93BF9360
:100E40008091A5029091A602A091A702B091A8025C
:100E50003091940223E0230F2D3758F50196A11D00
:100E6000B11D209394028093A5029093A602A093B3
:100E7000A702B093A8028091950290919602A0914A
:100E80009702B09198020196A11DB11D8093950221
:100E900090939602A0939702B0939802BF91AF915E
:100EA0009F918F913F912F910F900FBE0F901F90A8
:100EB000189526E8230F0296A11DB11DD2CFCF931E
:100EC000DF93CDB7DEB72C970FB6F894DEBF0FBE19
:100ED000CDBF789484B5826084BD84B5816084BDC3
:100EE00085B5826085BD85B5816085BD80916E00C8
:100EF000816080936E0010928100809181008260F9
:100F00008093810080918100816080938100809135
:100F100080008160809380008091B1008460809324
:100F2000B1008091B00081608093B0008091910009
:100F30008260809391008091910081608093910004
:100F4000809190008160809390008091A1008260E8
:100F50008093A1008091A10081608093A100809185
:100F6000A00081608093A000809121018260809325
:100F700021018091210181608093210180912001D4
:100F800081608093200180917A00846080937A0050
:100F900080917A00826080937A0080917A008160EB
:100FA00080937A0080917A00806880937A00109212
:100FB000C10082E00E9460060E94580680E00E9404
:100FC000010784E392E00E94E20481E00E940107AD
:100FD00085E492E00E94E20468EB7BE080E090E030
:100FE0000E94AC040E94580680E0E82E80E0F82EB3
:100FF00064E472E0CE0107960E94800564E472E02A
:10100000CE0101960E94800580E00E9401070E94A7
:101010003003182F8823D9F38A3261F041E0682F1A
:1010200088E193E00E94FF05612FCE0107960E94A0
:101030004705EDCF0E94580680E00E9401070E94FC
:101040003003182F8823D9F38A3261F041E0682FEA
:1010500088E193E00E94FF05612FCE0101960E9476
:101060004705EDCF0E94580680E00E9401076FE916
:1010700072E0CE0107960E94EF04882319F169E916
:1010800072E0CE0101960E94EF048823F1F086E51C
:1010900092E00E94E20460ED77E080E090E00E9440
:1010A000AC040E945806CE0101960E947805CE013C
:1010B00007960E947805E114F10409F499CF0E9483
:1010C000000096CF87E692E0E4CF88E792E0E1CF98
:1010D0006AE872E08FE992E00E9480056FE872E0B2
:1010E00089E992E00E9480051092AB021092AF0253
:1010F0001092AE021092B0028EE292E09093AA0299
:101100008093A902E5ECF2E010821482138215822A
:10111000369683E0E130F807B9F784E092E09093E7
:101120000C0380930B0380E092E090930E03809376
:101130000D0384E080930F038093100388E092E016
:1011400090930A03809309038AE090E0909312033E
:101150008093110384EF91E0909314038093130321
:1011600010921703109216031092050310920603B3
:1011700010920703109208031092150310921B039C
:1011800010921A0382E292E090931903809318035D
:101190008DE080931C038FEF80931D038CE0809380
:1011A0001E038BE080931F038AE08093200389E075
:1011B0008093210388E080932203109223031092EE
:1011C000240310922503109226031092270381E036
:1011D0000C94600689E992E00E9478058FE992E01C
:1011E0000C947805EE0FFF1F881F8BBF0790F691B8
:1011F000E02D19940F931F93CF93DF9382309105C5
:1012000010F482E090E0E0913203F091330330E09B
:1012100020E0B0E0A0E0309799F42115310509F401
:101220004AC0281B390B24303105D8F58A819B81AF
:101230006115710589F1FB0193838283FE0111C061
:10124000408151810281138148175907E0F0481706
:10125000590799F4109761F012960C931297139610
:101260001C933296CF01DF91CF911F910F9108957A
:101270000093320310933303F4CF2115310551F05D
:101280004217530738F0A901DB019A01BD01DF01C4
:10129000F801C1CFEF01F9CF90933303809332036C
:1012A000CDCFFE01E20FF31F8193919322503109BC
:1012B00039832883D7CF2091300330913103232BFA
:1012C00041F420911A0230911B0230933103209394
:1012D000300320911802309119022115310541F493
:1012E0002DB73EB740911C0250911D02241B350BB7
:1012F000E0913003F0913103E217F307A0F42E1BC5
:101300003F0B2817390778F0AC014E5F5F4F241769
:10131000350748F04E0F5F1F509331034093300361
:10132000819391939FCFF0E0E0E09CCFCF93DF9348
:101330000097E9F0FC01329713821282A0913203E8
:10134000B0913303ED0130E020E01097A1F420814B
:101350003181820F931F2091300330913103281780
:10136000390709F061C0F0933103E0933003DF9156
:10137000CF910895EA01CE17DF07E8F54A815B8136
:101380009E0141155105B1F7E901FB83EA834991BB
:101390005991C40FD51FEC17FD0761F4808191812D
:1013A0000296840F951FE901998388838281938136
:1013B0009B838A83F0E0E0E012968D919C911397D5
:1013C0000097B9F52D913C911197CD010296820FAE
:1013D000931F20913003309131032817390739F6D4
:1013E000309751F51092330310923203B0933103CA
:1013F000A0933003BCCFD383C28340815181840F3B
:10140000951FC817D90761F44E5F5F4F8881998196
:10141000480F591F518340838A819B819383828324
:101420002115310509F0B0CFF0933303E093320377
:101430009ECFFD01DC01C0CF13821282D7CF4F9225
:101440005F926F927F928F929F92AF92BF92CF9254
:10145000DF92EF92FF920F931F93CF93DF938C0154
:10146000009799F4CB01DF91CF911F910F91FF90DD
:10147000EF90DF90CF90BF90AF909F908F907F9034
:101480006F905F904F900C94FA08FC01E60FF71FE5
:101490009C0122503109E217F30708F4AEC0D901CC
:1014A000CD91DC911197C617D70720F1C530D10532
:1014B00078F0CE0104978617970750F0C61BD70B1C
:1014C0002297C193D1936D937C93CF010E9496098B
:1014D000C801DF91CF911F910F91FF90EF90DF90A6
:1014E000CF90BF90AF909F908F907F906F905F90C4
:1014F0004F9008955B01AC1ABD0A4C018C0E9D1EE5
:10150000A0913203B0913303512C412CF12CE12CEA
:10151000109731F58091300390913103881599052A
:1015200009F05CC04616570608F058C080911802B2
:1015300090911902009741F48DB79EB740911C021B
:1015400050911D02841B950BE817F90708F055C050
:10155000F0933103E0933003F90171836083B8CFD6
:101560008D919C91119712966C90129713967C9086
:101570001397A815B90559F56C0142E0C40ED11CAA
:10158000CA14DB0420F1AC014A195B09DA01129696
:10159000159780F06282738251834083D9016D93E5
:1015A0007C93E114F10471F0D7011396FC93EE9350
:1015B00012978ECF22968C0F9D1FF9019183808305
:1015C000F301EFCFF0933303E093320381CF48165A
:1015D000590608F42C017D01D3019ACFCB010E945A
:1015E000FA087C01009749F0AE01B8010E94000B97
:1015F000C8010E94960987016BCF10E000E068CF18
:10160000FB01DC0102C001900D9241505040D8F71F
:101610000895FB01DC018D91019080190110D9F32F
:10162000990B0895FB01DC0101900D920020E1F778
:10163000089511E0C7E3D1E000E006C0802FFE016D
:101640000E94F2082196011DC833D10780E00807E7
:10165000A9F7F894FFCF1A1B1C1D16171819373855
:10166000394134353642313233432A303D4400006B
:1016700034038000000000000F07FE01DF04DE04D9
:10168000000000002C03EC02BB022050726F677256
:10169000616D6D65642062793A20002041726D6948
:1016A0006E2026204D656872616E2000456E74655F
:1016B00072207375636365737366756C005573652B
:1016C000726E616D6520696E76616C6964002020C0
:1016D00057726F6E672070617373776F726420004A
:0A16E000414243440031323334002C
:020000040003F7
:10E000000D9489F10D94B2F10D94B2F10D94B2F129
:10E010000D94B2F10D94B2F10D94B2F10D94B2F1F0
:10E020000D94B2F10D94B2F10D94B2F10D94B2F1E0
:10E030000D94B2F10D94B2F10D94B2F10D94B2F1D0
:10E040000D94B2F10D94B2F10D94B2F10D94B2F1C0
:10E050000D94B2F10D94B2F10D94B2F10D94B2F1B0
:10E060000D94B2F10D94B2F10D94B2F10D94B2F1A0
:10E070000D94B2F10D94B2F10D94B2F10D94B2F190
:10E080000D94B2F10D94B2F10D94B2F10D94B2F180
:10E090000D94B2F10D94B2F10D94B2F10D94B2F170
:10E0A0000D94B2F10D94B2F10D94B2F10D94B2F160
:10E0B0000D94B2F10D94B2F10D94B2F10D94B2F150
:10E0C0000D94B2F10D94B2F10D94B2F10D94B2F140
:10E0D0000D94B2F10D94B2F10D94B2F10D94B2F130
:10E0E0000D94B2F141546D656761323536300041AF
:10E0F000726475696E6F206578706C6F72657220DE
:10E1000073746B3530305632206279204D4C530099
:10E11000426F6F746C6F616465723E004875683F52
:10E1200000436F6D70696C6564206F6E203D200048
:10E130004350552054797065202020203D20005FF9
:10E140005F4156525F415243485F5F3D2000415658
:10E1500052204C696243205665723D20004743437C
:10E160002056657273696F6E203D20004350552024
:10E1700049442020202020203D20004C6F7720663D
:10E18000757365202020203D20004869676820665F
:10E190007573652020203D200045787420667573D6
:10E1A00065202020203D20004C6F636B2066757336
:10E1B000652020203D20004D617220203720323024
:10E1C000313300312E362E3800342E332E350056A2
:10E1D00023202020414444522020206F7020636F70
:10E1E00064652020202020696E73747275637469E1
:10E1F0006F6E2061646472202020496E74657272B3
:10E20000757074006E6F20766563746F7200726A49
:10E210006D702020006A6D70200057686174207056
:10E220006F72743A00506F7274206E6F7420737541
:10E2300070706F72746564004D7573742062652030
:10E2400061206C6574746572002000577269747483
:10E25000696E672045450052656164696E672045B7
:10E26000450045452065727220636E743D00504F35
:10E27000525400303D5A65726F2061646472003FF1
:10E280003D43505520737461747300403D454550C3
:10E29000524F4D207465737400423D426C696E6B41
:10E2A000204C454400453D44756D70204545505215
:10E2B0004F4D00463D44756D7020464C415348001B
:10E2C000483D48656C70004C3D4C69737420492F83
:10E2D0004F20506F72747300513D51756974005234
:10E2E0003D44756D702052414D00563D73686F7707
:10E2F00020696E7465727275707420566563746FF0
:10E30000727300593D506F727420626C696E6B00BD
:10E310002A0011241FBECFEFD1E2DEBFCDBF01E046
:10E320000CBF12E0A0E0B2E0EEE1FDEF03E00BBFB6
:10E3300002C007900D92A030B107D9F712E0A0E01B
:10E34000B2E001C01D92AE30B107E1F70F9460F367
:10E350000D948DFE01E20EBF0FEF0DBF11241FBE05
:10E360000D9460F30D9400F020E030E040ED57E0B4
:10E3700005C0FA013197F1F72F5F3F4F2817390792
:10E38000C0F308959C01260F311DC901A0E0B0E043
:10E390002F5F3F4FABBFFC018791882361F08093D3
:10E3A000C6008091C00086FFFCCF8091C0008064D1
:10E3B0008093C000EACF08958DE08093C6008091DD
:10E3C000C00086FFFCCF8091C00080648093C000B5
:10E3D0008AE08093C6008091C00086FFFCCF8091C8
:10E3E000C00080648093C00008950F94C2F10F9420
:10E3F000DCF10895FC019081992359F09093C600B7
:10E400008091C00086FFFCCF8091C0008064809323
:10E41000C0003196992379F70895282F982F929567
:10E420009F70892F805D8A3308F0895F8093C600D2
:10E430008091C00086FFFCCF8091C00080648093F3
:10E44000C000822F8F70982F905D9A3308F0995FEB
:10E450009093C6008091C00086FFFCCF8091C000E1
:10E4600080648093C00008959C01FB01853691056E
:10E470001CF46330710594F0C90164E670E00F94F8
:10E480002EFE605D7F4F6093C6008091C00086FFC6
:10E49000FCCF8091C00080648093C0002B30310598
:10E4A00014F43297B4F0C90164E670E00F942EFEC4
:10E4B0006AE070E00F942EFE605D7F4F6093C600AF
:10E4C0008091C00086FFFCCF8091C0008064809363
:10E4D000C000C9016AE070E00F942EFEC0968093E0
:10E4E000C6008091C00086FFFCCF8091C000806490
:10E4F0008093C00008951F93182F8EE692EE60E07F
:10E500000F94C2F11093C6008091C00086FFFCCF2B
:10E510008091C00080648093C0000F94DCF11F9153
:10E5200008952F923F924F925F926F927F928F92B7
:10E530009F92AF92BF92CF92DF92EF92FF920F9392
:10E540001F93DF93CF93CDB7DEB762970FB6F894E2
:10E55000DEBF0FBECDBF382E622ECA01DB015C01CB
:10E560006D01772420E2222E2E010894411C511CBB
:10E570008BC081E0A81680E0B80681E0C80680E084
:10E58000D80628F0C601AA27BB270F940DF2BB2797
:10E59000AD2D9C2D8B2D0F940DF28A2D0F940DF225
:10E5A0002092C6008091C00086FFFCCF8091C00001
:10E5B00080648093C0009DE29093C6008091C0006B
:10E5C00086FFFCCF8091C00080648093C0002092C1
:10E5D000C6008091C00086FFFCCF8091C00080649F
:10E5E0008093C00019828601750188249924A1E0D6
:10E5F0003A1651F03A1620F0B2E03B1661F409C029
:10E600000BBFF701779007C0C7010F9477FE782EF4
:10E6100002C0F7017080872D0F940DF22092C60082
:10E620008091C00086FFFCCF8091C0008064809301
:10E63000C000872D8052F401EF70F0708F3520F408
:10E64000E40DF51D708204C0E40DF51D8EE280839B
:10E650000894E11CF11C011D111D0894811C911CE2
:10E6600090E18916910409F0C2CF80E190E0A0E02A
:10E67000B0E0A80EB91ECA1EDB1E198AC2010F9493
:10E68000FAF10F94DCF16A94662009F072CF629679
:10E690000FB6F894DEBF0FBECDBFCF91DF911F91B3
:10E6A0000F91FF90EF90DF90CF90BF90AF909F9031
:10E6B0008F907F906F905F904F903F902F90089534
:10E6C0002F923F924F925F926F927F928F929F9282
:10E6D000AF92BF92CF92DF92EF92FF920F931F9370
:10E6E000DF93CF93CDB7DEB7CD53D1400FB6F894BB
:10E6F000DEBF0FBECDBF01E20EBF0FEF0DBF94B75F
:10E70000F894A89514BE80916000886180936000A1
:10E7100010926000789493FF05C0E0910002F091A0
:10E7200001021995279A2F9A8091C00082608093E8
:10E73000C00080E18093C40088E18093C1000000A4
:10E74000EE24FF24870144E0A42EB12CCC24DD2448
:10E7500024C0C5010197F1F70894E11CF11C011DCB
:10E76000111D21E2E2162EE4F20620E0020720E06D
:10E77000120718F031E0C32ED12CC801B70127ECE5
:10E780003BE140E050E00F9441FE611571058105C9
:10E79000910519F485B1805885B98091C00087FD35
:10E7A00003C0C114D104A9F2A6014F5F5F4FC25E3E
:10E7B000DE4F59834883CE51D140C25EDE4F8881FF
:10E7C0009981CE51D140019711F00D9410FEC05D9A
:10E7D000DE4F19821882C053D14060E0C15DDE4F28
:10E7E0001882CF52D14088249924C35DDE4F19820C
:10E7F0001882CD52D140C05EDE4F188219821A8233
:10E800001B82C052D140CE5CDE4F188219821A8220
:10E810001B82C253D140EE24FF2487010BBFF701B6
:10E8200007911691C45CDE4F19830883CC53D14005
:10E830000D940BFEC25EDE4F28813981CE51D1404E
:10E840002130310509F52091C600C25EDE4F1982E4
:10E850001882CE51D14022C02F5F3F4F4F4F5F4FA4
:10E86000213082E138078AE7480780E0580780F0C6
:10E87000C45CDE4FE881F981CC53D140EF5FFF4F9C
:10E8800019F0EE27FF27099420E030E040E050E047
:10E890008091C00087FFE0CF2091C600C35DDE4FAE
:10E8A00048815981CD52D1404F5F5F4FC35DDE4FEC
:10E8B00059834883CD52D140213209F063C64A3092
:10E8C000510508F05FC60894811C911C53E0851621
:10E8D000910409F059C600E010E018C081E280936D
:10E8E000C6008091C00086FFFCCF8091C00080648C
:10E8F0008093C0002F5F3F4F2931310579F70F9486
:10E90000DCF10F5F1F4F0530110519F020E030E0FA
:10E91000E5CF10920A0210920B0210920C02109294
:10E920000D02109206021092070210920802109235
:10E930000902109202021092030210920402109235
:10E9400005028FEE90EE60E00F94F5F180E191EE1C
:10E9500060E00F94C2F18091C00087FFFCCF9091DE
:10E96000C600903608F09F759032B8F09093C600BC
:10E970008091C00086FFFCCF8091C00080648093AE
:10E98000C000A0E2A093C6008091C00086FFFCCF2B
:10E990008091C00080648093C000983409F4D7C18E
:10E9A0009934B8F4923409F459C1933458F490333B
:10E9B00019F1903308F4E3C59F33A1F1903409F0C5
:10E9C000DEC5BDC0953409F470C1963409F0D7C5D1
:10E9D00098C1923509F42BC2933538F49C3409F46C
:10E9E000F5C1913509F0CBC518C2963509F445C279
:10E9F000993509F0C4C567C483E792EE62E00F94CD
:10EA0000F5F110920602109207021092080210927D
:10EA1000090210920A0210920B0210920C0210923C
:10EA20000D0213C18FE792EE62E00F94F5F18FEEC5
:10EA300090EE60E00F94F5F181E291EE60E00F94CA
:10EA4000C2F187EB91EE60E00F94F5F180E391EE77
:10EA500060E00F94C2F184EE90EE60E00F94F5F167
:10EA60008FE391EE60E00F94C2F186E090E061E008
:10EA700070E00F9434F20F94DCF18DE591EE60E0DC
:10EA80000F94C2F189EC91EE60E00F94F5F18EE401
:10EA900091EE60E00F94C2F183EC91EE60E00F9490
:10EAA000F5F18CE691EE60E00F94C2F18EE10F94E7
:10EAB0000DF288E90F940DF281E00F940DF20F949E
:10EAC000DCF18BE791EE60E00F94C2F119E0E0E039
:10EAD000F0E010935700E4918E2F0F940DF20F94F5
:10EAE000DCF18AE891EE60E00F94C2F1E3E0F0E03F
:10EAF00010935700E4918E2F0F940DF20F94DCF1D8
:10EB000089E991EE60E00F94C2F1E2E0F0E0109349
:10EB10005700E4918E2F0F940DF20F94DCF188EAE8
:10EB200091EE60E00F94C2F1E1E0F0E01093570045
:10EB30001491812F0F940DF20F94DCF107CF8BE825
:10EB400092EE62E00F94F5F18BE492EE60E00F94A8
:10EB5000F5F10F94DCF100E010E019C0C8016F2D51
:10EB60000F947FFEFF2031F489E492EE60E00F9471
:10EB7000C2F10BC0F092C6008091C00086FFFCCFAE
:10EB80008091C00080648093C0000F5F1F4FC80158
:10EB900081519F41A0E0B0E0ABBFFC01F790BAE229
:10EBA000FB1621F0E2E000301E07C1F60F94DCF105
:10EBB0000F94DCF187E592EE60E00F94F5F10F948D
:10EBC000DCF1CC24DD2400E010E01EC0C8010F946D
:10EBD00077FEF82E882331F489E492EE60E00F94FA
:10EBE000C2F10BC08093C6008091C00086FFFCCFAD
:10EBF0008091C00080648093C000FE1419F00894D6
:10EC0000C11CD11C0F5F1F4FC80181519F41A0E063
:10EC1000B0E0ABBFFC01E790FAE2EF1621F022E092
:10EC20000030120799F60F94DCF10F94DCF182E6C4
:10EC300092EE60E00F94C2F1C60161E070E00F94C3
:10EC400034F20F94DCF10F94DCF110920202109276
:10EC50000302109204021092050278CE89E992EE26
:10EC600062E00F94F5F1279A2F9A16C02F9880E052
:10EC700090E0E0EDF7E03197F1F7019684369105E9
:10EC8000C1F72F9A80E090E0E0EDF7E03197F1F7DF
:10EC9000019684369105C1F78091C00087FFE6CFC9
:10ECA0008091C00087FFFCCF64C485EA92EE62E0E9
:10ECB0000F94F5F140910202509103026091040219
:10ECC0007091050281E020E10F9491F2809102029F
:10ECD00090910302A0910402B091050280509F4FD1
:10ECE000AF4FBF4F8093020290930302A0930402A0
:10ECF000B093050280509041A040B04008F426CE69
:10ED0000A4CF83EB92EE62E00F94F5F140910602FE
:10ED100050910702609108027091090280E020E1A1
:10ED20000F9491F28091060290910702A09108023F
:10ED3000B091090280509F4FAF4FBF4F80930602A2
:10ED400090930702A0930802B0930902FFCD80ECD4
:10ED500092EE62E00F94F5F183E792EE60E00F949B
:10ED6000F5F18FE792EE60E00F94F5F18BE892EE0B
:10ED700060E00F94F5F189E992EE60E00F94F5F10F
:10ED800085EA92EE60E00F94F5F183EB92EE60E09D
:10ED90000F94F5F180EC92EE60E00F94F5F187ECC2
:10EDA00092EE60E00F94F5F188ED92EE60E00F9442
:10EDB000F5F18FED92EE60E00F94F5F18AEE92EEB0
:10EDC00060E00F94F5F183E093EEBDCD87EC92EE19
:10EDD00062E00F94F5F181E40F947BF282E40F94EA
:10EDE0007BF283E40F947BF284E40F947BF285E45E
:10EDF0000F947BF286E40F947BF287E40F947BF20E
:10EE000088E40F947BF28AE40F947BF28BE40F94F6
:10EE10007BF28CE40F947BF299CD88ED92EE62E068
:10EE20000F94F5F1772473948824992409C48FED05
:10EE300092EE62E00F94F5F140910A0250910B02BC
:10EE400060910C0270910D0282E020E10F9491F22A
:10EE500080910A0290910B02A0910C02B0910D02D8
:10EE600080509F4FAF4FBF4F80930A0290930B0289
:10EE7000A0930C02B0930D0269CD8AEE92EE62E08F
:10EE80000F94F5F184EE90EE60E00F94F5F18FECC5
:10EE900091EE60E00F94F5F1662477244301CC5D98
:10EEA000DE4F19821882C452D140D401C301B695F5
:10EEB000A79597958795CA5DDE4F88839983AA8326
:10EEC000BB83C652D140CC5DDE4FA881B981C4520C
:10EED000D1401196CC5DDE4FB983A883C452D14096
:10EEE000CD0162E070E00F9434F2B0E2B093C6005E
:10EEF0008091C00086FFFCCF8091C0008064809329
:10EF0000C000EDE2E093C6008091C00086FFFCCF18
:10EF10008091C00080648093C000F0E2F093C6004E
:10EF20008091C00086FFFCCF8091C00080648093F8
:10EF3000C000CA5DDE4FE880F9800A811B81C6529D
:10EF4000D140BB27A12F902F8F2D0F940DF2CA5DBA
:10EF5000DE4F8881C652D1400F940DF2B0E2FB2EF5
:10EF6000F092C6008091C00086FFFCCF8091C00067
:10EF700080648093C0000DE30093C6008091C000C0
:10EF800086FFFCCF8091C00080648093C00010E2B7
:10EF90001093C6008091C00086FFFCCF8091C00016
:10EFA00080648093C0008BBEF3012791C65DDE4F65
:10EFB0002883CA52D140A22EBB24CC24DD2408943D
:10EFC000611C711C811C911C8BBEF3018791282E42
:10EFD0003324442455240894611C711C811C911C09
:10EFE0008BBEF3013791C55DDE4F3883CB52D140E4
:10EFF0000894611C711C811C911C8BBEF30147910C
:10F00000C45DDE4F4883CC52D140ADEFEA2EAFEF66
:10F01000FA2EAFEF0A2FAFEF1A2F6E0C7F1C801E57
:10F02000911E142D032DF22CEE24EA0CFB1C0C1D5A
:10F030001D1D0F940DF220E22093C6008091C000A8
:10F0400086FFFCCF8091C00080648093C000C65DC5
:10F05000DE4F8881CA52D1400F940DF230E23093D6
:10F06000C6008091C00086FFFCCF8091C000806404
:10F070008093C000C45DDE4F8881CC52D1400F9494
:10F080000DF240E24093C6008091C00086FFFCCFA5
:10F090008091C00080648093C000C55DDE4F888190
:10F0A000CB52D1400F940DF250E25093C6008091A4
:10F0B000C00086FFFCCF8091C00080648093C000B8
:10F0C0008FEFE8168FEFF80680E0080780E018075A
:10F0D00031F484E092EE60E00F94C2F1DFC0D80119
:10F0E000C7018070907CA070B0708050904CA040A0
:10F0F000B040D1F52FEF3FE340E050E0E222F322B1
:10F1000004231523CA5DDE4FA880B980CA80DB8046
:10F11000C652D140AE0CBF1CC01ED11EAA0CBB1CD7
:10F12000CC1CDD1C8EE092EE60E00F94C2F1BB2798
:10F13000A12F902F8F2D0F940DF28E2D0F940DF285
:10F1400030E23093C6008091C00086FFFCCF8091F2
:10F15000C00080648093C0004EE34093C60080915D
:10F16000C00086FFFCCF87C08EE09EEFA0E0B0E03D
:10F17000E822F9220A231B239CE0E91694E9F90608
:10F1800090E0090790E0190709F088C0C45DDE4FE0
:10F19000A881CC52D140EA2EFF2400E010E0102FCD
:10F1A0000F2DFE2CEE24C55DDE4FB881CB52D14031
:10F1B000EB0EF11C011D111DD601C501817090706F
:10F1C000A070B070DC0199278827E80EF91E0A1F8D
:10F1D0001B1F20EF30E040E050E0A222B322C42207
:10F1E000D52241E1AA0CBB1CCC1CDD1C4A95D1F7F1
:10F1F000EA0CFB1C0C1D1D1D81E090E0A0E0B0E0BE
:10F20000282239224A225B2235E1220C331C441C7D
:10F21000551C3A95D1F7E20CF31C041D151D57013E
:10F220006801AA0CBB1CCC1CDD1C85E192EE60E0E1
:10F230000F94C2F1C801AA27BB270F940DF2BB2778
:10F24000A12F902F8F2D0F940DF28E2D0F940DF274
:10F2500090E29093C6008091C00086FFFCCF809121
:10F26000C00080648093C000AEE3A093C60080918C
:10F27000C00086FFFCCF8091C00080648093C000F6
:10F28000C601AA27BB270F940DF2BB27AD2D9C2DDD
:10F290008B2D0F940DF28A2D0F940DF20F94DCF14B
:10F2A000CC5DDE4FE881F981C452D140F99709F471
:10F2B0004DCBF4E0EF2EF12C012D112D6E0C7F1CA7
:10F2C000801E911EF2CD83E093EE62E00F94F5F183
:10F2D0008AE192EE60E00F94C2F18091C00087FF56
:10F2E000FCCF1091C6001F751093C6008091C0001E
:10F2F00086FFFCCF8091C00080648093C0000F9493
:10F30000DCF1812F81548A3108F036C1163409F4BA
:10F3100095C0173490F4133409F44EC0143430F40B
:10F320001134F1F0123409F01DC130C0143409F465
:10F3300059C0153409F016C16BC01A3409F4C4C0A1
:10F340001B3438F4173409F48FC0183409F00AC19B
:10F35000A1C01B3409F4D2C01C3409F003C1E8C0B9
:10F360008FEF81B90DC082B1809582B980E090E0C5
:10F37000E0EDF7E03197F1F70196883C9105C1F790
:10F380008091C00087FFEFCF12B8EFC08FEF84B934
:10F390000DC085B1809585B980E090E0E0EDF7E0A3
:10F3A0003197F1F70196883C9105C1F78091C00033
:10F3B00087FFEFCF15B8D9C08FEF87B90DC088B1DF
:10F3C000809588B980E090E0E0EDF7E03197F1F7C3
:10F3D0000196883C9105C1F78091C00087FFEFCF6F
:10F3E00018B8C3C08FEF8AB90DC08BB180958BB9A7
:10F3F00080E090E0E0EDF7E03197F1F70196883C8E
:10F400009105C1F78091C00087FFEFCF1BB8ADC059
:10F410008FEF8DB90DC08EB180958EB980E090E0F0
:10F42000E0EDF7E03197F1F70196883C9105C1F7DF
:10F430008091C00087FFEFCF1EB897C08FEF80BBD1
:10F440000DC081B3809581BB80E090E0E0EDF7E0F6
:10F450003197F1F70196883C9105C1F78091C00082
:10F4600087FFEFCF11BA81C08FEF83BB0DC084B38C
:10F47000809584BB80E090E0E0EDF7E03197F1F714
:10F480000196883C9105C1F78091C00087FFEFCFBE
:10F4900014BA6BC08FEF809301010FC080910201FD
:10F4A00080958093020180E090E0E0EDF7E03197F5
:10F4B000F1F70196883C9105C1F78091C00087FF64
:10F4C000EDCF1092020151C08FEF809304010FC065
:10F4D0008091050180958093050180E090E0E0ED4A
:10F4E000F7E03197F1F70196883C9105C1F78091DB
:10F4F000C00087FFEDCF1092050137C08FEF8093DA
:10F5000007010FC08091080180958093080180E079
:10F5100090E0E0EDF7E03197F1F70196883C910536
:10F52000C1F78091C00087FFEDCF109208011DC088
:10F530008FEF80930A010FC080910B01809580931B
:10F540000B0180E090E0E0EDF7E03197F1F70196F4
:10F55000883C9105C1F78091C00087FFEDCF1092E4
:10F560000B0103C085E292EEEEC98091C00087FFD7
:10F57000FCCF8091C600EAC988E392EEE4C98CE131
:10F5800091EEE1C988249924933011F1943028F444
:10F59000913089F09230B8F408C0953061F195301F
:10F5A000F0F0963009F048C043C02B3109F042C951
:10F5B00091E06BE13FC96227C15DDE4F2883CF52E6
:10F5C000D14092E037C9B22FA0E0622793E032C960
:10F5D000822F90E0A82BB92B622794E02BC92E3004
:10F5E00009F039C3622795E0C05DDE4F19821882A9
:10F5F000C053D1401FC9E1E0F0E0EC0FFD1FC05D3A
:10F60000DE4F08811981C053D140E00FF11F2083E4
:10F610000F5F1F4FC05DDE4F19830883C053D14079
:10F6200062270A171B0709F005C9D80196E002C92D
:10F63000261709F010C303C0973009F0FBC87724E0
:10F640009981933109F412C19431C8F4963009F4C8
:10F65000D8C0973050F4923009F406C1933009F4C1
:10F660006DC0913009F059C253C0913109F477C08F
:10F67000923108F0BBC0903109F04FC2F5C098310B
:10F6800009F487C0993150F4953109F4EFC09531F0
:10F6900008F4C6C1963109F040C2C2C19A3109F4DA
:10F6A0006CC09A3108F491C09B3109F45BC09D3164
:10F6B00009F033C29D81903359F48F81882311F46E
:10F6C0009EE11CC0813011F091E018C098E916C08D
:10F6D000892F807591F0903539F4E0E0F0E089E011
:10F6E0008093570094910AC0983539F4E3E0F0E034
:10F6F00089E080935700949101C090E01A821B82A8
:10F700008D818C831D829E831F8227E030E009C299
:10F710001A8288E08B8381E48C8386E58D8382E581
:10F720008E8389E48F8383E5888780E589878FE5E9
:10F730008A8782E38B872BE030E0F3C18A818139AD
:10F7400041F0823941F0803911F48FE005C080E04A
:10F7500003C082E001C08AE01A828B8344C0772410
:10F76000739482C08D81882311F48EE12CC0813086
:10F7700011F081E028C088E926C01A82E1E0F0E0BB
:10F7800089E08093570084918B831C8224E030E0D1
:10F79000C8C18B81803589F48C81883039F4E2E0EE
:10F7A000F0E089E08093570084910DC0E0E0F0E044
:10F7B00089E080935700849106C0E3E0F0E089E09F
:10F7C0008093570084911A82DFCF8D81836C99E0FA
:10F7D000E1E0F0E0082E90935700E89507B600FCB2
:10F7E000FDCF1A821B8223E030E09BC180EC8A832C
:10F7F000CE5CDE4F188219821A821B82C253D1401E
:10F800008EC18A8190E0A0E0B0E0582F44273327D2
:10F8100022278B8190E0A0E0B0E0DC0199278827C7
:10F82000282B392B4A2B5B2B8D8190E0A0E0B0E098
:10F83000282B392B4A2B5B2B8C8190E0A0E0B0E089
:10F84000BA2FA92F982F8827282B392B4A2B5B2BCF
:10F85000220F331F441F551FC05EDE4F288339839C
:10F860004A835B83C052D1401A8259C13A81C95C34
:10F87000DE4F3883C753D140CA5CDE4F1882C6536F
:10F88000D1408B81C82EDD24CA5CDE4F488159816E
:10F89000C653D140C42AD52A933109F082C0CE5C28
:10F8A000DE4F88819981AA81BB81C253D1408050AB
:10F8B000904CA340B04030F583E0CE5CDE4FE88052
:10F8C000F9800A811B81C253D140F70100935B008C
:10F8D00080935700E89507B600FCFDCFCE5CDE4F65
:10F8E000088119812A813B81C253D14000501F4FAA
:10F8F0002F4F3F4FCE5CDE4F088319832A833B8313
:10F90000C253D140C05EDE4F488159816A817B81FC
:10F91000C052D140DE011B9631E08C9111962C91A2
:10F9200011971296C75CDE4F2883C953D140C85C3B
:10F93000DE4F1882C853D14090E0C85CDE4FE881AA
:10F94000F981C853D1408E2B9F2B0C01FA01609393
:10F950005B0030935700E89511244E5F5F4F6F4F67
:10F960007F4F0EEFE02E0FEFF02ECE0CDF1CC114F8
:10F97000D10499F685E0C05EDE4F088119812A81A5
:10F980003B81C052D140F80120935B008093570027
:10F99000E89507B600FCFDCF81E180935700E8951C
:10F9A00035C0C05EDE4F88819981AA81BB81C0527B
:10F9B000D140B695A795979587957C018601ABE0D8
:10F9C000AA2EB12CAC0EBD1E0BC0D5016D915D01F0
:10F9D000C7010F947FFE0894E11CF11C01501040F8
:10F9E0000115110591F7A60160E070E0440F551F65
:10F9F000661F771FC05EDE4FE880F9800A811B8199
:10FA0000C052D1404E0D5F1D601F711F1A82C05E33
:10FA1000DE4F488359836A837B83C052D1407FC0C5
:10FA2000FA80C55CDE4FF882CB53D140C65CDE4F16
:10FA30001882CA53D1408B81C82EDD24C65CDE4FAC
:10FA400008811981CA53D140C02AD12A1A828981DA
:10FA5000BE016D5F7F4F843121F59601C05EDE4FA0
:10FA6000E880F9800A811B81C052D1400BBFF701A9
:10FA700087919691DB018C9311969C936E5F7F4FDB
:10FA8000D801C7010296A11DB11DC05EDE4F88835B
:10FA90009983AA83BB83C052D14022503040F1F6F3
:10FAA00036C0C05EDE4F288139814A815B81C052F9
:10FAB000D1400894C108D108760100E010E0089414
:10FAC000C11CD11C0894E11CF11C011D111DE20E8A
:10FAD000F31E041F151F21BDBB27A52F942F832FB5
:10FAE00082BD2F5F3F4F4F4F5F4FF89A80B5DB01CC
:10FAF0008D93BD012E153F054007510761F7C05E8C
:10FB0000DE4F288339834A835B83C052D1409601FC
:10FB10002D5F3F4FFB01108204C080EC8A8322E0FE
:10FB200030E08BE18093C6008091C00086FFFCCF5F
:10FB30008091C00080648093C000C15DDE4FF88179
:10FB4000CF52D140F093C6008091C00086FFFCCF19
:10FB50008091C00080648093C000432F3093C60022
:10FB60008091C00086FFFCCF8091C00080648093AC
:10FB7000C000922F2093C6008091C00086FFFCCF6A
:10FB80008091C00080648093C0008EE08093C600A6
:10FB90008091C00086FFFCCF8091C000806480937C
:10FBA000C00065E1C15DDE4FE880CF52D1406E25D7
:10FBB00069276427FE01319610C090819093C6009A
:10FBC0008091C00086FFFCCF31968091C000806498
:10FBD0008093C0006927215030402115310569F715
:10FBE0006093C6008091C00086FFFCCF8091C0006A
:10FBF00080648093C00085B1805885B9772081F4F6
:10FC0000C15DDE4F0881CF52D1400F5FC15DDE4F35
:10FC10000883CF52D14090E0A0E0B0E00D941AF4F8
:10FC200027982F9880E090E020ED37E0F901319798
:10FC3000F1F7019684369105C9F700008091C00064
:10FC40008D7F8093C00081E180935700E895EE2777
:10FC5000FF270994FFCF90E00D941AF497FB092E2B
:10FC600007260AD077FD04D02ED006D000201AF443
:10FC7000709561957F4F0895F6F7909581959F4F08
:10FC80000895A1E21A2EAA1BBB1BFD010DC0AA1FDD
:10FC9000BB1FEE1FFF1FA217B307E407F50720F0F5
:10FCA000A21BB30BE40BF50B661F771F881F991F70
:10FCB0001A9469F760957095809590959B01AC01B9
:10FCC000BD01CF010895AA1BBB1B51E107C0AA1FAC
:10FCD000BB1FA617B70710F0A61BB70B881F991FED
:10FCE0005A95A9F780959095BC01CD010895F99991
:10FCF000FECF92BD81BDF89A992780B50895262F31
:10FD0000F999FECF1FBA92BD81BD20BD0FB6F89400
:0EFD1000FA9AF99A0FBE01960895F894FFCF63
:00000001FF
