:100000000C9438010C9469010C9469010C946901F9
:100010000C9469010C9469010C9469010C946901B8
:100020000C9469010C9469010C9469010C946901A8
:100030000C9469010C9469010C9469010C94690198
:100040000C9469010C9469010C9469010C94690188
:100050000C9469010C9469010C9469010C941507C6
:100060000C9469010C9469010C9469010C94690168
:100070000C9469010C9469010C9469010C94690158
:100080000C9469010C9469010C9469010C94690148
:100090000C9469010C9469010C9469010C94690138
:1000A0000C9469010C9469010C9469010C94690128
:1000B0000C9469010C9469010C9469010C94690118
:1000C0000C9469010C9469010C9469010C94690108
:1000D0000C9469010C9469010C9469010C946901F8
:1000E0000C9469010C9453020C9480020C945B02F2
:1000F0000C948A020C944F020C94EC020C9449026A
:100100000C9468080C9489020C946E020C94DE0422
:100110000C9464020C9457020C942C030C947C02F3
:100120000C94EA080C940F070C9472020C9476025B
:100130000C948E020C94BB020C94DF040C94840289
:100140000C9468020C94FE010C945E0200002100E5
:10015000240027002A002D00300033000101000098
:10016000040107010A0100002200250028002B00DD
:100170002E003100340002010000050108010B01CE
:10018000000020002300260029002C002F00320050
:100190000001000003010601090105050505070529
:1001A00008080808020202020A0A080804040404F3
:1001B000010101010101010103030303030303031F
:1001C000040707070C0C0C0C0C0C0C0C02020202AE
:1001D00006060606060606060B0B0B0B0B0B0B0B97
:1001E0000102102020080810204010204080020149
:1001F000020108040201010204081020408080402E
:10020000201008040201800402018040201008042C
:1002100002010804020101020408102040800102CA
:1002200004081020408000000A0B02090C0D0E0883
:1002300007030401000000000000000000000000AF
:1002400000000000000000000000000000000000AE
:10025000000012111000000000000000000000006B
:100260000000000000000000000000006808EA082C
:1002700011241FBECFEFD1E2DEBFCDBF00E00CBF27
:1002800023E0A4E9B2E001C01D92A433B207E1F774
:1002900012E0A0E0B2E0E6E5F6E100E00BBF02C04C
:1002A00007900D92A439B107D9F711E0C7E3D1E067
:1002B00000E006C021970109802FFE010E94F2088C
:1002C000C633D10780E00807A9F70E945F070C94A6
:1002D000190B0C94000096E0899FD0011124A755BA
:1002E000BD4F90967C936E935F9791E091969C930F
:1002F0009197E0911603F0911703909115039923BC
:1003000039F0309751F0811108C08091C5021994DD
:10031000309719F05C968C91FACF0895CF92DF92C6
:10032000EF92FF920F931F9396E0899FF0011124A3
:10033000E755FD4F11A2278D30A12130310551F134
:1003400078F02230310509F451C02330310509F429
:1003500052C01F910F91FF90EF90DF90CF900895C2
:100360006623B9F361E070E00E946B012FB7F89447
:100370008091A5029091A602A091A702B091A80237
:100380002FBF8093010390930203A0930303B093C4
:100390000403DFCF9FB7F894C090A502D090A602C7
:1003A000E090A702F090A8029FBF00910103109176
:1003B00002032091030330910403C01AD10AE20A18
:1003C000F30A009113031091140330E020E00C15A0
:1003D0001D052E053F0550F462E070E01F910F915E
:1003E000FF90EF90DF90CF900C946B016111B1CF33
:1003F00063E070E0F3CF70E060E0F0CFAF92BF92C7
:10040000CF92DF92EF92FF920F931F93CF93DF93E0
:100410006C017B018B01040F151FEB015E01AE180F
:10042000BF08C017D10759F06991D601ED91FC9131
:100430000190F081E02DC6011995892B79F7C5014E
:10044000DF91CF911F910F91FF90EF90DF90CF90B0
:10045000BF90AF9008958150823108F05AC0E82FC4
:10046000F0E08827E95CFD4F8F4F0C94F2085702AB
:100470005B0249024F02530289025E026402680273
:100480006E02720276027C028002890284028A0273
:100490008E02809180008F778093800008958091F4
:1004A00080008F7DF9CF80918000877FF5CF84B564
:1004B0008F7784BD089584B58F7DFBCF8091B00088
:1004C0008F778093B00008958091B0008F7DF9CF31
:1004D000809190008F778093900008958091900094
:1004E0008F7DF9CF80919000877FF5CF8091A0001C
:1004F0008F778093A00008958091A0008F7DF9CF21
:100500008091A000877FF5CF809120018F77809325
:1005100020010895809120018F7DF9CF80912001E5
:10052000877FF5CFCF93DF93282F30E0F901EA5D85
:10053000FD4F8491F901E052FE4FD491F901E65646
:10054000FE4FC491CC23A1F081110E942B02EC2F0D
:10055000F0E0EE0FFF1FE058FE4FA591B491EC9133
:10056000ED2381E090E009F480E0DF91CF910895E0
:1005700080E090E0FACF862F0C9492021F93CF93E5
:10058000DF93282F30E0F901EA5DFD4F8491F901F6
:10059000E052FE4FD491F901E656FE4FC491CC23B0
:1005A000A9F0162F81110E942B02EC2FF0E0EE0F24
:1005B000FF1FEA59FE4FA591B4918FB7F894EC91C3
:1005C000111108C0D095DE23DC938FBFDF91CF914E
:1005D0001F910895DE2BF8CF862F642F0C94BE0256
:1005E000CF93DF9390E0FC01E052FE4F24918656BA
:1005F0009E4FFC0184918823C9F090E0880F991FD9
:10060000FC01E45BFE4FA591B491FC01EA59FE4F59
:10061000C591D49161110DC09FB7F8948C9120952C
:1006200082238C938881282328839FBFDF91CF91D9
:100630000895623051F49FB7F8943C91822F8095D1
:1006400083238C93E8812E2BEFCF8FB7F894EC9116
:100650002E2B2C938FBFEACF862F642F0C94F002A1
:100660006F927F928F929F92AF92BF92CF92DF92C2
:10067000EF92FF920F931F93CF93DF9381E08093CC
:1006800015038FB7F8944091A5025091A60260918E
:10069000A7027091A8028FBF809105039091060375
:1006A000A0910703B0910803481B590B6A0B7B0B01
:1006B0008091110390911203B0E0A0E08417950798
:1006C000A607B70708F01DC1C0E080910F03C81747
:1006D00060F4E0910B03F0910C03EC0FF11D62E06C
:1006E00080810E94F002CF5FF0CF712C812C912C81
:1006F0005401839480911003781608F05FC0072D91
:1007000010E0E0910D03F0910E03E00FF11F61E0A6
:1007100080810E94F002E0910D03F0910E03E00F42
:10072000F11F60E080810E94BE02D501C401072C48
:1007300004C0880F991FAA1FBB1F0A94D2F76C012F
:100740007C01E094F094612C80910F036816F8F41A
:10075000C62DD0E0E0910B03F0910C03EC0FFD1FD0
:1007600080810E9492022496CC0FDD1FC755DD4F79
:10077000892B41F4888199818C299D2999838883CB
:100780006394E2CF888199818E219F21F7CFE091F8
:100790000D03F0910E03E00FF11F61E080810E94D4
:1007A000BE0280910D0390910E03080F191F60E0A7
:1007B000F80180810E94F00273949CCFC9EAD2E0D4
:1007C000FE018FEF9FEF278D30A1232B21F4148E94
:1007D000968F858F11A2369622E0E53EF20799F7B3
:1007E000F12C96E0D92E80910F03F81608F050C036
:1007F000E12C0F2D10E0000F111F0F541D4F209101
:100800001003E21608F042C0F801608171810E2CDD
:1008100002C0769567950A94E2F7F29E9001112442
:100820002E0D311DE9EAF2E080E0458D568D24174A
:10083000350709F46AC08F5F36968A30B1F760FFDA
:1008400023C0E9EAF2E090E080E0448D411117C056
:10085000E0910903F0910A03E20FF31F4081D89E53
:10086000F001D99EF00D1124E755FD4F448F368FCE
:10087000258F10A2178E61E00E948E0105C001969F
:1008800036968A30910509F7E394B9CFF394ABCF4C
:1008900080E099A19111892F2696F2E0C53EDF07ED
:1008A000C1F79FB7F8944091A5025091A6026091BC
:1008B000A7027091A8029FBF4093050350930603BF
:1008C00060930703709308038823D9F08091CA02CC
:1008D0008823B9F08091C8029091C902019789F4E8
:1008E0008091C502DF91CF911F910F91FF90EF9002
:1008F000DF90CF90BF90AF909F908F907F906F9040
:1009000008951092150380E0EDCF6170B5CF3FB729
:10091000F8948091950290919602A0919702B091DF
:10092000980226B5A89B05C02F3F19F00196A11D7E
:10093000B11D3FBFBA2FA92F982F8827BC01CD0129
:10094000620F711D811D911D42E0660F771F881F88
:10095000991F4A95D1F708958F929F92AF92BF92B7
:10096000CF92DF92EF92FF924B015C010E948704CD
:100970006B017C010E9487046C197D098E099F0917
:10098000683E734081059105A8F321E0821A910821
:10099000A108B10888EEC80E83E0D81EE11CF11C46
:1009A00081149104A104B10429F7FF90EF90DF9026
:1009B000CF90BF90AF909F908F900895089590E052
:1009C00080E00895FC0101900020E9F73197AF0124
:1009D000481B590BBC0188E193E00C94FE01FC011B
:1009E00024813581FB014481558124173507E1F4C9
:1009F000FC0180819181FB01608171810097D1F0C0
:100A000061157105A1F4232BC1F0FC01808190E0F8
:100A100008C0232B91F0FB01808190E09195819596
:100A2000910921E0892B09F020E0822F08950E948E
:100A3000090BF7CF6115710561F721E0F6CF0F9330
:100A40001F93CF93DF93EC0188819981009759F030
:100A50002A813B812617370730F081E0DF91CF9163
:100A60001F910F9108958B016F5F7F4F0E941F0AA6
:100A7000009759F0998388831B830A832C813D81D9
:100A8000232B59F7FC011082E8CF80E0E7CFEF92EB
:100A9000FF920F931F93CF93DF931F921F92CDB7B7
:100AA000DEB78C0169831A82FC01E480F580FFEFD8
:100AB000EF1AFF0AB7010E941F05882381F0F80191
:100AC0002081318184819581BE016F5F7F4F820FCC
:100AD000931F0E94120BF801F582E48281E00F90CF
:100AE0000F90DF91CF911F910F91FF90EF9008959C
:100AF000FC0180819181009711F00C949609089572
:100B0000EF92FF920F931F93CF93DF93EC017B0142
:100B1000198218821B821A821D821C82FB0101909D
:100B20000020E9F731978F01061B170BB8010E94CF
:100B30001F0528813981811113C02115310519F054
:100B4000C9010E949609198218821D821C821B828B
:100B50001A82DF91CF911F910F91FF90EF9008952E
:100B60001D830C83B701C901DF91CF911F910F91B4
:100B7000FF90EF900C94120BCF93DF93EC0160E0A9
:100B80008E810E94BE0261E08E810E94BE0260E002
:100B90008E810E94BE028BE891E00197F1F7DF9110
:100BA000CF910895CF92DF92EF92FF920F931F9310
:100BB000CF93DF936C017C0187E0E80EF11CD0E05D
:100BC000C0E0062F10E0B8010C2E02C075956795A5
:100BD0000A94E2F76170F70181917F010E94BE02E1
:100BE0002196C430D10579F7C601DF91CF911F91CD
:100BF0000F91FF90EF90DF90CF900C94BC05CF92B7
:100C0000DF92EF92FF920F931F93CF93DF93EC014C
:100C1000F62E642F8C810E94BE028D818F3F19F0C9
:100C200060E00E94BE020F2D10E08F8584FF25C07A
:100C30006E0187E0C80ED11CF12CE12CB8010E2CFE
:100C400002C0759567950A94E2F76170F60181918B
:100C50006F010E94BE02FFEFEF1AFF0A88E0E8165C
:100C6000F10461F7CE01DF91CF911F910F91FF90B9
:100C7000EF90DF90CF900C94BC05B80184E075959F
:100C800067958A95E1F7CE010E94D2056F2DCE01BE
:100C9000DF91CF911F910F91FF90EF90DF90CF9058
:100CA0000C94D20540E0682F88E193E00C94FF0596
:100CB00081E00E9452068BE39FE10197F1F70895CE
:100CC000CF93DF93823029F490912703986090931B
:100CD000270380932B0310922C0380E480932D0331
:100CE00080E180932E0380E580932F0361E0809163
:100CF0001C030E94F00280911D038F3F19F061E0F8
:100D00000E94F00261E080911E030E94F002C8E19F
:100D1000D3E09E01285133408091270384FD0BC00E
:100D200084E090E021962817390744F461E08E8131
:100D30000E94F002EECF88E090E0F4CF8BE39DE0DC
:100D40000197F1F760E080911C030E94BE0260E011
:100D500080911E030E94BE0280911D038F3F19F0F7
:100D600060E00E94BE028091270384FD34C063E0EE
:100D700088E193E00E94D205CBE4D6E4CE0101974E
:100D8000F1F763E088E193E00E94D2052197F1F743
:100D900063E088E193E00E94D20583E592E0019749
:100DA000F1F762E088E193E00E94D2058091270389
:100DB00080620E94520684E0809328038CE00E94A7
:100DC00052060E94580682E08093290386E0DF9154
:100DD000CF910C94520680620E9452068BE496E4F6
:100DE0000197F1F78091270380620E94520683E504
:100DF00092E00197F1F78091270380620E945206EA
:100E0000D5CF90912B03891710F08FEF890FE82F22
:100E1000F0E0E85EFC4F848980680C94520641E063
:100E20000E94FF0581E090E008951F920F920FB697
:100E30000F9211242F933F938F939F93AF93BF9360
:100E40008091A5029091A602A091A702B091A8025C
:100E50003091940223E0230F2D3758F50196A11D00
:100E6000B11D209394028093A5029093A602A093B3
:100E7000A702B093A8028091950290919602A0914A
:100E80009702B09198020196A11DB11D8093950221
:100E900090939602A0939702B0939802BF91AF915E
:100EA0009F918F913F912F910F900FBE0F901F90A8
:100EB000189526E8230F0296A11DB11DD2CFCF931E
:100EC000DF93CDB7DEB72C970FB6F894DEBF0FBE19
:100ED000CDBF789484B5826084BD84B5816084BDC3
:100EE00085B5826085BD85B5816085BD80916E00C8
:100EF000816080936E0010928100809181008260F9
:100F00008093810080918100816080938100809135
:100F100080008160809380008091B1008460809324
:100F2000B1008091B00081608093B0008091910009
:100F30008260809391008091910081608093910004
:100F4000809190008160809390008091A1008260E8
:100F50008093A1008091A10081608093A100809185
:100F6000A00081608093A000809121018260809325
:100F700021018091210181608093210180912001D4
:100F800081608093200180917A00846080937A0050
:100F900080917A00826080937A0080917A008160EB
:100FA00080937A0080917A00806880937A00109212
:100FB000C10082E00E9460060E94580680E00E9404
:100FC000010784E392E00E94E20481E00E940107AD
:100FD00085E492E00E94E20468EB7BE080E090E030
:100FE0000E94AC040E94580680E0E82E80E0F82EB3
:100FF00064E472E0CE0107960E94800564E472E02A
:10100000CE0101960E94800580E00E9401070E94A7
:101010003003182F8823D9F38A3261F041E0682F1A
:1010200088E193E00E94FF05612FCE0107960E94A0
:101030004705EDCF0E94580680E00E9401070E94FC
:101040003003182F8823D9F38A3261F041E0682FEA
:1010500088E193E00E94FF05612FCE0101960E9476
:101060004705EDCF0E94580680E00E9401076FE916
:1010700072E0CE0107960E94EF04882319F169E916
:1010800072E0CE0101960E94EF048823F1F086E51C
:1010900092E00E94E20460ED77E080E090E00E9440
:1010A000AC040E945806CE0101960E947805CE013C
:1010B00007960E947805E114F10409F499CF0E9483
:1010C000000096CF87E692E0E4CF88E792E0E1CF98
:1010D0006AE872E08FE992E00E9480056FE872E0B2
:1010E00089E992E00E9480051092AB021092AF0253
:1010F0001092AE021092B0028EE292E09093AA0299
:101100008093A902E5ECF2E010821482138215822A
:10111000369683E0E130F807B9F784E092E09093E7
:101120000C0380930B0380E092E090930E03809376
:101130000D0384E080930F038093100388E092E016
:1011400090930A03809309038AE090E0909312033E
:101150008093110384EF91E0909314038093130321
:1011600010921703109216031092050310920603B3
:1011700010920703109208031092150310921B039C
:1011800010921A0382E292E090931903809318035D
:101190008DE080931C038FEF80931D038CE0809380
:1011A0001E038BE080931F038AE08093200389E075
:1011B0008093210388E080932203109223031092EE
:1011C000240310922503109226031092270381E036
:1011D0000C94600689E992E00E9478058FE992E01C
:1011E0000C947805EE0FFF1F881F8BBF0790F691B8
:1011F000E02D19940F931F93CF93DF9382309105C5
:1012000010F482E090E0E0913203F091330330E09B
:1012100020E0B0E0A0E0309799F42115310509F401
:101220004AC0281B390B24303105D8F58A819B81AF
:101230006115710589F1FB0193838283FE0111C061
:10124000408151810281138148175907E0F0481706
:10125000590799F4109761F012960C931297139610
:101260001C933296CF01DF91CF911F910F9108957A
:101270000093320310933303F4CF2115310551F05D
:101280004217530738F0A901DB019A01BD01DF01C4
:10129000F801C1CFEF01F9CF90933303809332036C
:1012A000CDCFFE01E20FF31F8193919322503109BC
:1012B00039832883D7CF2091300330913103232BFA
:1012C00041F420911A0230911B0230933103209394
:1012D000300320911802309119022115310541F493
:1012E0002DB73EB740911C0250911D02241B350BB7
:1012F000E0913003F0913103E217F307A0F42E1BC5
:101300003F0B2817390778F0AC014E5F5F4F241769
:10131000350748F04E0F5F1F509331034093300361
:10132000819391939FCFF0E0E0E09CCFCF93DF9348
:101330000097E9F0FC01329713821282A0913203E8
:10134000B0913303ED0130E020E01097A1F420814B
:101350003181820F931F2091300330913103281780
:10136000390709F061C0F0933103E0933003DF9156
:10137000CF910895EA01CE17DF07E8F54A815B8136
:101380009E0141155105B1F7E901FB83EA834991BB
:101390005991C40FD51FEC17FD0761F4808191812D
:1013A0000296840F951FE901998388838281938136
:1013B0009B838A83F0E0E0E012968D919C911397D5
:1013C0000097B9F52D913C911197CD010296820FAE
:1013D000931F20913003309131032817390739F6D4
:1013E000309751F51092330310923203B0933103CA
:1013F000A0933003BCCFD383C28340815181840F3B
:10140000951FC817D90761F44E5F5F4F8881998196
:10141000480F591F518340838A819B819383828324
:101420002115310509F0B0CFF0933303E093320377
:101430009ECFFD01DC01C0CF13821282D7CF4F9225
:101440005F926F927F928F929F92AF92BF92CF9254
:10145000DF92EF92FF920F931F93CF93DF938C0154
:10146000009799F4CB01DF91CF911F910F91FF90DD
:10147000EF90DF90CF90BF90AF909F908F907F9034
:101480006F905F904F900C94FA08FC01E60FF71FE5
:101490009C0122503109E217F30708F4AEC0D901CC
:1014A000CD91DC911197C617D70720F1C530D10532
:1014B00078F0CE0104978617970750F0C61BD70B1C
:1014C0002297C193D1936D937C93CF010E9496098B
:1014D000C801DF91CF911F910F91FF90EF90DF90A6
:1014E000CF90BF90AF909F908F907F906F905F90C4
:1014F0004F9008955B01AC1ABD0A4C018C0E9D1EE5
:10150000A0913203B0913303512C412CF12CE12CEA
:10151000109731F58091300390913103881599052A
:1015200009F05CC04616570608F058C080911802B2
:1015300090911902009741F48DB79EB740911C021B
:1015400050911D02841B950BE817F90708F055C050
:10155000F0933103E0933003F90171836083B8CFD6
:101560008D919C91119712966C90129713967C9086
:101570001397A815B90559F56C0142E0C40ED11CAA
:10158000CA14DB0420F1AC014A195B09DA01129696
:10159000159780F06282738251834083D9016D93E5
:1015A0007C93E114F10471F0D7011396FC93EE9350
:1015B00012978ECF22968C0F9D1FF9019183808305
:1015C000F301EFCFF0933303E093320381CF48165A
:1015D000590608F42C017D01D3019ACFCB010E945A
:1015E000FA087C01009749F0AE01B8010E94000B97
:1015F000C8010E94960987016BCF10E000E068CF18
:10160000FB01DC0102C001900D9241505040D8F71F
:101610000895FB01DC018D91019080190110D9F32F
:10162000990B0895FB01DC0101900D920020E1F778
:10163000089511E0C7E3D1E000E006C0802FFE016D
:101640000E94F2082196011DC833D10780E00807E7
:06165000A9F7F894FFCF9A
:101656001A1B1C1D161718193738394134353642EE
:10166600313233432A303D44000034038000000009
:1016760000000F07FE01DF04DE04000000002C035B
:10168600EC02BB022050726F6772616D6D6564205B
:1016960062793A20002041726D696E2026204D65E0
:1016A6006872616E2000456E74657220737563639F
:1016B60065737366756C00557365726E616D652032
:1016C600696E76616C696400202057726F6E6720C0
:1016D60070617373776F7264200041424344003136
:0416E6003233340067
:00000001FF
