:100000000C941F010C94C9030C949E030C9473036D
:100010000C9448030C941D030C94F2020C94C70238
:100020000C949C020C9440010C9440010C944001EF
:100030000C9440010C9440010C9440010C9440013C
:100040000C9440010C9440010C9440010C9440012C
:100050000C9440010C9440010C9440010C94520209
:100060000C9440010C9440010C9440010C9440010C
:100070000C9440010C9440010C9440010C944001FC
:100080000C9440010C9440010C9440010C944001EC
:100090000C9440010C9440010C9440010C944001DC
:1000A0000C9440010C9440010C9440010C944001CC
:1000B0000C9440010C9440010C9440010C944001BC
:1000C0000C9440010C9440010C9440010C944001AC
:1000D0000C9440010C9440010C9440010C9440019C
:1000E0000C9440010C9446010C94BC010C949501B5
:1000F0000C94D0010C9431020C94B4010C9499012D
:100100000C94CA010C94A4010C94A1010C94C2019A
:100110000C9483010C94C6010C94AA010C94AE01BA
:100120000C9442010C94B8010C944A010C949D016A
:100130000C94D4010C947E0100000A0B02090C0DF2
:100140000E0807030401000000000000000000008A
:10015000000000000000000000000000000000009F
:10016000000000001211100000000000000000005C
:10017000000000000000000000000000000000007F
:100180002200250028002B002E003100340002013F
:100190000000050108010B010000210024002700D8
:1001A0002A002D0030003300010100000401070186
:1001B0000A010505050507050808080802020202EC
:1001C0000A0A0808040404040101010101010101F3
:1001D0000303030303030303040707070C0C0C0CBE
:1001E0000C0C0C0C020202020606060606060606A7
:1001F0000B0B0B0B0B0B0B0B010210202008081034
:100200002040102040800201020108040201010286
:10021000040810204080804020100804020180045F
:1002200002018040201008040201080402010102BA
:10023000040810204080010204081020408011248E
:100240001FBECFEFD1E2DEBFCDBF00E00CBF12E09A
:10025000A0E0B2E0E6E6FAE000E00BBF02C00790E3
:100260000D92A432B107D9F722E0A4E2B2E001C0B6
:100270001D92A033B207E1F70E94F4030C943105FC
:100280000C94000081E080932F02089581E0809318
:100290002E02089581E080932D020895282F30E0EA
:1002A000F901E85CFE4F9491F901E850FE4F44914A
:1002B0002E543E4FF9012491222309F435C099238D
:1002C00011F191509231F8F4E92FF0E08827E459C8
:1002D000FE4F8F4F0C9429059D01A1017E019501D0
:1002E00099018301A401AA01AE01B401B801BC01C6
:1002F000C201C6018301CA01D001D40180918000EE
:100300008F7780938000E22FF0E0EE0FFF1FE2581E
:10031000FE4FA591B4918FB7F894EC91611148C04C
:1003200040954E234C938FBF0895809180008F7D20
:10033000E8CF80918000877FE4CF84B58F7784BD3C
:10034000E2CF84B58F7DFBCF8091B0008F77809313
:10035000B000D9CF8091B0008F7DF9CF809190000F
:100360008F7780939000CFCF809190008F7DF9CFD1
:1003700080919000877FF5CF8091A0008F77809348
:10038000A000C1CF8091A0008F7DF9CF8091A00007
:10039000877FF5CF809120018F7780932001B3CFA5
:1003A000809120018F7DF9CF80912001877FF5CF4B
:1003B0004E2BB8CF3FB7F8948091290290912A0232
:1003C000A0912B02B0912C0226B5A89B05C02F3F0F
:1003D00019F00196A11DB11D3FBFBA2FA92F982F6B
:1003E0008827BC01CD01620F711D811D911D42E066
:1003F000660F771F881F991F4A95D1F708958F922E
:100400009F92AF92BF92CF92DF92EF92FF924B01F9
:100410005C010E94DA016B017C010E94DA016C1917
:100420007D098E099F09683E734081059105A8F3F7
:1004300021E0821A9108A108B10888EEC80E83E075
:10044000D81EE11CF11C81149104A104B10429F708
:10045000FF90EF90DF90CF90BF90AF909F908F90E4
:1004600008950895CF93DF93C6E1D2E08881229664
:1004700061E00E944E0182E0C432D807B9F7DF91F3
:10048000CF910895CF93DF93C6E1D2E08881229681
:1004900060E00E944E0182E0C432D807B9F7DF91D4
:1004A000CF9108951F920F920FB60F9211242F93A0
:1004B0003F938F939F93AF93BF9380912502909129
:1004C0002602A0912702B09128023091240223E055
:1004D000230F2D3758F50196A11DB11D209324023D
:1004E0008093250290932602A0932702B0932802BE
:1004F0008091290290912A02A0912B02B0912C02A6
:100500000196A11DB11D8093290290932A02A09308
:100510002B02B0932C02BF91AF919F918F913F918D
:100520002F910F900FBE0F901F90189526E8230F64
:100530000296A11DB11DD2CF1F920F920FB60F923E
:1005400011240BB60F922F933F934F935F936F93AA
:100550007F938F939F93AF93BF93EF93FF93E0911C
:100560000E02F0910F021995FF91EF91BF91AF919B
:100570009F918F917F916F915F914F913F912F91BB
:100580000F900BBE0F900FBE0F901F9018951F92EB
:100590000F920FB60F9211240BB60F922F933F9329
:1005A0004F935F936F937F938F939F93AF93BF937B
:1005B000EF93FF93E0910C02F0910D021995FF91DA
:1005C000EF91BF91AF919F918F917F916F915F91CB
:1005D0004F913F912F910F900BBE0F900FBE0F9038
:1005E0001F9018951F920F920FB60F9211240BB601
:1005F0000F922F933F934F935F936F937F938F93BC
:100600009F93AF93BF93EF93FF93E0910202F0911A
:1006100003021995FF91EF91BF91AF919F918F9137
:100620007F916F915F914F913F912F910F900BBEF2
:100630000F900FBE0F901F9018951F920F920FB63C
:100640000F9211240BB60F922F933F934F935F930A
:100650006F937F938F939F93AF93BF93EF93FF938A
:10066000E0910002F09101021995FF91EF91BF9185
:10067000AF919F918F917F916F915F914F913F913A
:100680002F910F900BBE0F900FBE0F901F901895DB
:100690001F920F920FB60F9211240BB60F922F9349
:1006A0003F934F935F936F937F938F939F93AF93FA
:1006B000BF93EF93FF93E0910A02F0910B0219951B
:1006C000FF91EF91BF91AF919F918F917F916F912A
:1006D0005F914F913F912F910F900BBE0F900FBEE6
:1006E0000F901F9018951F920F920FB60F92112422
:1006F0000BB60F922F933F934F935F936F937F931C
:100700008F939F93AF93BF93EF93FF93E091080272
:10071000F09109021995FF91EF91BF91AF919F91CF
:100720008F917F916F915F914F913F912F910F909A
:100730000BBE0F900FBE0F901F9018951F920F9237
:100740000FB60F9211240BB60F922F933F934F9336
:100750005F936F937F938F939F93AF93BF93EF9329
:10076000FF93E0910602F09107021995FF91EF9136
:10077000BF91AF919F918F917F916F915F914F91B9
:100780003F912F910F900BBE0F900FBE0F901F90B7
:1007900018951F920F920FB60F9211240BB60F925D
:1007A0002F933F934F935F936F937F938F939F9379
:1007B000AF93BF93EF93FF93E0910402F091050292
:1007C0001995FF91EF91BF91AF919F918F917F917B
:1007D0006F915F914F913F912F910F900BBE0F90B2
:1007E0000FBE0F901F901895789484B5826084BDD9
:1007F00084B5816084BD85B5826085BD85B5816025
:1008000085BD80916E00816080936E0010928100A2
:10081000809181008260809381008091810081605D
:10082000809381008091800081608093800080911E
:10083000B10084608093B1008091B00081608093AA
:10084000B00080919100826080939100809191002E
:1008500081608093910080919000816080939000EE
:100860008091A10082608093A1008091A1008160AD
:100870008093A1008091A00081608093A00080916E
:100880002101826080932101809121018160809308
:1008900021018091200181608093200180917A0064
:1008A000846080937A0080917A00826080937A00DD
:1008B00080917A00816080937A0080917A008068CC
:1008C00080937A001092C100A0E1B2E08D919D91D9
:1008D0009927FC01E850FE4F24918E549E4FFC0155
:1008E00084918823C9F090E0880F991FFC01E85695
:1008F000FE4F45915491FC01E258FE4FC591D491B1
:100900009FB7F894FA0180812095822380838881A3
:10091000E22FE823E8839FBFF2E0A631BF07B1F6DC
:10092000C6E1D2E0899199919927FC01E850FE4FE8
:1009300024918E549E4FFC018491882399F090E07D
:10094000880F991FFC01E856FE4FA591B491FC0158
:10095000E258FE4F859194918FB7F894EC91E22B79
:10096000EC938FBFF2E0C432DF07E1F60E9442024F
:1009700082E491E090930B0280930A0280916900D7
:100980008F73806880936900EB9A86E491E090937E
:10099000090280930802809169008F7C80628093B5
:1009A0006900EA9A8AE491E0909307028093060234
:1009B00080916900837F886080936900E99A80E074
:1009C000E82E80E0F82E80912F028130D1F406E1EC
:1009D00012E0F80180810E5F1F4F61E00E944E011E
:1009E00064EF71E080E090E00E94FF01C017D10742
:1009F00081F710922F02E114F10429F30E94000004
:100A0000E2CF80912E028130D9F406E010E001504F
:100A1000110989F00E9432026CE271E080E090E0FE
:100A20000E94FF010E9442026CE271E080E090E0CF
:100A30000E94FF01ECCF0E94320210922E02DBCF07
:100A400080912D028130B9F60E94420210922D024F
:100A5000D2CFEE0FFF1F881F8BBF0790F691E02DBE
:060A60001994F894FFCF89
:100A660031023102310231023102310231023102E8
:100A7600120013001400000001000200030004002D
:040A86000500060061
:00000001FF
