:100000000C9435010C9466010C9466010C94660105
:100010000C9466010C9466010C9466010C946601C4
:100020000C9466010C9466010C9466010C946601B4
:100030000C9466010C9466010C9466010C946601A4
:100040000C9466010C9466010C9466010C94660194
:100050000C9466010C9466010C9466010C94EE06F7
:100060000C9466010C9466010C9466010C94660174
:100070000C9466010C9466010C9466010C94660164
:100080000C9466010C9466010C9466010C94660154
:100090000C9466010C9466010C9466010C9438076C
:1000A0000C9466010C9466010C9466010C94660134
:1000B0000C9466010C9466010C9466010C94660124
:1000C0000C9466010C9466010C9466010C94660114
:1000D0000C9466010C9466010C9466010C94660104
:1000E0000C9466010C9414030C9438020C9489014E
:1000F0000C9424020C9420020C9468010C94E601E8
:100100000C943C020C942E020C9405020C941202E6
:100110000C94DF020C9499020C94EF020C94770A71
:100120000C9409020C949F050C945C080C94010239
:100130000C94EB010C94FD010C94E0020C94090367
:100140000C9469010C9425030C9432020C940C025B
:100150000C941C020C942A020C9416020C940203B8
:1001600000000A0B02090C0D0E0807030401000031
:10017000000000000000000000000000000000007F
:10018000000000000000000000000000121110003C
:10019000000000000000000000000000000000005F
:1001A00000000000000000002200250028002B00B5
:1001B0002E003100340002010000050108010B018E
:1001C00000002100240027002A002D003000330009
:1001D00001010000040107010A01050505050705E5
:1001E00008080808020202020A0A080804040404B3
:1001F00001010101010101010303030303030303DF
:10020000040707070C0C0C0C0C0C0C0C020202026D
:1002100006060606060606060B0B0B0B0B0B0B0B56
:100220000102102020080810204010204080020108
:1002300002010804020101020408102040808040ED
:1002400020100804020180040201804020100804EC
:10025000020108040201010204081020408001028A
:100260000408102040805C08770A11241FBECFEFDD
:10027000D1E2DEBFCDBF00E00CBF23E0A4E5B2E0D9
:1002800001C01D92AC33B207E1F712E0A0E0B2E08A
:10029000E4E5FAE100E00BBF02C007900D92A4353F
:1002A000B107D9F711E0C4E3D1E000E006C021971F
:1002B0000109802FFE010E94E60AC333D10780E0C6
:1002C0000807A9F70E94AF080C94180D0C940000C1
:1002D0000895089590E0FC01E05EFD4F2491865260
:1002E0009E4FFC018491882399F090E0880F991F1C
:1002F000FC01E054FE4FA591B491FC01EA55FE4F7C
:10030000859194918FB7F894EC91E22BEC938FBF89
:100310000895AF92BF92CF92DF92EF92FF920F9328
:100320001F93CF93DF936C017B018B01040F151F8B
:10033000EB015E01AE18BF08C017D10759F06991F3
:10034000D601ED91FC910190F081E02DC601199547
:10035000892B79F7C501DF91CF911F910F91FF9004
:10036000EF90DF90CF90BF90AF900895282F30E0AE
:10037000F901E05AFE4F9491F901E05EFD4F44917E
:1003800026523E4FF9012491222309F435C09923C6
:1003900011F191509231F8F4E92FF0E08827EC52F6
:1003A000FE4F8F4F0C94E60A05020902E601FD019B
:1003B0000102EB010C02120216021C0220022402AE
:1003C0002A022E02EB01320238023C0280918000A8
:1003D0008F7780938000E22FF0E0EE0FFF1FEA5549
:1003E000FE4FA591B4918FB7F894EC91611148C07C
:1003F00040954E234C938FBF0895809180008F7D50
:10040000E8CF80918000877FE4CF84B58F7784BD6B
:10041000E2CF84B58F7DFBCF8091B0008F77809342
:10042000B000D9CF8091B0008F7DF9CF809190003E
:100430008F7780939000CFCF809190008F7DF9CF00
:1004400080919000877FF5CF8091A0008F77809377
:10045000A000C1CF8091A0008F7DF9CF8091A00036
:10046000877FF5CF809120018F7780932001B3CFD4
:10047000809120018F7DF9CF80912001877FF5CF7A
:100480004E2BB8CF3FB7F8948091E9029091EA02E1
:10049000A091EB02B091EC0226B5A89B05C02F3FBE
:1004A00019F00196A11DB11D3FBFBA2FA92F982F9A
:1004B0008827BC01CD01620F711D811D911D42E095
:1004C000660F771F881F991F4A95D1F708958F925D
:1004D0009F92AF92BF92CF92DF92EF92FF924B0129
:1004E0005C010E9442026B017C010E9442026C1975
:1004F0007D098E099F09683E734081059105A8F327
:1005000021E0821A9108A108B10888EEC80E83E0A4
:10051000D81EE11CF11C81149104A104B10429F737
:10052000FF90EF90DF90CF90BF90AF909F908F9013
:100530000895089520919E02260F3327331F2132FC
:100540003105ECF42091C202FC0190E080E02430FF
:1005500069F082E00895A0919E022191AC01425879
:100560005D4FA40FB52FB11D2C930196861798F3FC
:1005700080919E02680F60939E0280E0089581E062
:1005800008951092C20281E08093C4021092C302C7
:1005900061E084E10E94B60161E085E10E94B6015C
:1005A000E9EBF0E080818E7F808380818D7F808386
:1005B00088E48093B80085E48093BC000895089592
:1005C000E0910D0380910C03E81730F4F0E0E85A55
:1005D000FD4F808190E008958FEF9FEF08959091F7
:1005E0000D0380910C032FEF3FEF981748F4E92F8C
:1005F000F0E0E85AFD4F208130E09F5F90930D03BB
:10060000C901089580910C0390910D03891B990BEA
:100610000895CF93DF93CB01EA01642F0E949A02E1
:10062000CE01DF91CF910895CF93DF931F92CDB785
:10063000DEB7698361E0CE0101960E949A0281E0F3
:1006400090E00F90DF91CF91089590E080E00895C1
:100650006093F7027093F8028093F9029093FA0284
:10066000645D7E4F8F4F9F4F6093F3027093F4024F
:100670008093F5029093F60282E090E09093F2026C
:100680008093F1022FB7F8948091ED029091EE02E1
:10069000A091EF02B091F0022FBF8093FB029093E4
:1006A000FC02A093FD02B093FE0208954F925F9268
:1006B0006F927F928F929F92AF92BF92CF92DF9272
:1006C000EF92FF920F931F93CF93DF934B015C0147
:1006D0008091540290915502A0915602B091570218
:1006E00088159905AA05BB0509F4C6C08CE3C82E78
:1006F000D12CE12CF12CC501A70196010E94C40A5E
:100700006093FF02CA01B901A70196010E94C40AC1
:1007100060930003C501B40120E13EE040E050E0F9
:100720000E94C40ACA01B90128E130E040E050E06B
:100730000E94C40A60930103C501B40120E831E5B9
:1007400041E050E00E94C40A69017A01CA01B9017E
:100750006C5F7F4F8F4F9F4F27E030E040E050E0CD
:100760000E94C40A6F5F60930203412C512C320136
:1007700040E004E610E0C0E9D1E0242F30E02E5440
:10078000384FF901E370FF273097F9F4C901B80138
:100790000E94B00A892B31F4C901BE010E94B00A3F
:1007A000892B99F48EE691E0A0E0B0E0480E591E46
:1007B0006A1E7B1ED301C201AA27BB27C816D90611
:1007C000EA06FB0638F04F5FD8CF8DE691E0A0E057
:1007D000B0E0ECCF40930503C90164E670E00E94ED
:1007E000B00AEC01C90160E971E00E94B00A3097DB
:1007F00021F42097D9F40097C9F04DE651E060E06C
:1008000070E0441A550A660A770AC418D508E60843
:10081000F708A6E0B2E020E0213069F43097E9F56E
:10082000209711F40097C9F54DE106C04EE651E05E
:1008300060E070E0E6CF4C9150E070E060E031E0C5
:10084000320FC416D506E606F70640F0C41AD50ADC
:10085000E60AF70A1196232F3C30F1F62F5F20931A
:100860000403C394C09203038092540290925502F1
:10087000A0925602B0925702DF91CF911F910F9133
:10088000FF90EF90DF90CF90BF90AF909F908F90B0
:100890007F906F905F904F9008954CE1CDCFCF93B4
:1008A000DF93EC0160E08E810E94B60161E08E81F1
:1008B0000E94B60160E08E810E94B6018BE891E053
:1008C0000197F1F7DF91CF910895CF92DF92EF92E8
:1008D000FF920F931F93CF93DF936C017C0187E00E
:1008E000E80EF11CD0E0C0E0062F10E0B8010C2E9D
:1008F00002C0759567950A94E2F76170F7018191DE
:100900007F010E94B6012196C430D10579F7C60156
:10091000DF91CF911F910F91FF90EF90DF90CF90DB
:100920000C944F04CF92DF92EF92FF920F931F939C
:10093000CF93DF93EC01F62E642F8C810E94B601D9
:100940008D818F3F19F060E00E94B6010F2D10E0FD
:100950008F8584FF25C06E0187E0C80ED11CF12C65
:10096000E12CB8010E2C02C0759567950A94E2F748
:100970006170F60181916F010E94B601FFEFEF1ADD
:10098000FF0A88E0E816F10461F7CE01DF91CF910C
:100990001F910F91FF90EF90DF90CF900C944F0438
:1009A000B80184E0759567958A95E1F7CE010E94BC
:1009B00065046F2DCE01DF91CF911F910F91FF90B4
:1009C000EF90DF90CF900C94650440E0682F80E2B8
:1009D00093E00C94920481E00E94E5048BE39FE194
:1009E0000197F1F70895CF93DF93823029F4909126
:1009F0002F03986090932F03809333031092340356
:100A000080E48093350380E18093360380E5809312
:100A10003703809124030E946A01809125038F3F50
:100A200011F00E946A01809126030E946A01C0E2CF
:100A3000D3E09E012052334080912F0384FD0AC0F1
:100A400084E090E02196281739073CF48E810E94BB
:100A50006A01EFCF88E090E0F5CF8BE39DE001974E
:100A6000F1F760E0809124030E94B60160E080917C
:100A700026030E94B601809125038F3F19F060E0A4
:100A80000E94B60180912F0384FD34C063E080E2B0
:100A900093E00E946504CBE4D6E4CE010197F1F720
:100AA00063E080E293E00E9465042197F1F763E040
:100AB00080E293E00E94650483E592E00197F1F7FC
:100AC00062E080E293E00E94650480912F038062DF
:100AD0000E94E50484E0809330038CE00E94E504EA
:100AE0000E94EB0482E08093310386E0DF91CF9196
:100AF0000C94E50480620E94E5048BE496E401977F
:100B0000F1F780912F0380620E94E50483E592E073
:100B10000197F1F780912F0380620E94E504D5CF01
:100B200090913303691710F06FEF690FE62FF0E033
:100B3000E05EFC4F9489890F80680C94E50441E0E5
:100B40000E94920481E090E00895CF93DF93EC013E
:100B500088819981009711F00E949E0B198218825A
:100B60001D821C821B821A82DF91CF910895FC01A5
:100B700080819181009711F00C949E0B08950F9342
:100B80001F93CF93DF93EC0188819981009759F0EF
:100B90002A813B812617370730F081E0DF91CF9122
:100BA0001F910F9108958B016F5F7F4F0E94270C5B
:100BB000009759F0998388831B830A832C813D8198
:100BC000232B59F7FC011082E8CF80E0E7CF0F9389
:100BD0001F93CF93DF93EC010C811D810F5F1F4F9B
:100BE000B8010E94BF05882391F0288139818C814A
:100BF0009D8160E372E0820F931F0E94110D1D839F
:100C00000C83CE01DF91CF911F910F910895CE01FA
:100C10000E94A505F6CFEF92FF920F931F93CF93FB
:100C2000DF93EC01FB01E080F180E114F10411F1AC
:100C30000481158101151105A9F08C819D81080F92
:100C4000191FB801CE010E94BF05882399F02881A1
:100C500039818C819D81B701820F931F0E94110DF4
:100C60001D830C83CE01DF91CF911F910F91FF90D7
:100C7000EF900895CE010E94A505F4CFEF92FF9268
:100C80000F931F93CF93DF93EC017B018A01BA018D
:100C90000E94BF0581110BC0CE010E94A505CE01A7
:100CA000DF91CF911F910F91FF90EF9008951D83D9
:100CB0000C83B701888199810E94110DF0CFEF92CA
:100CC000FF920F931F93CF93DF93CDB7DEB7629759
:100CD0000FB6F894DEBF0FBECDBF8C01CB01F8017B
:100CE0001182108213821282158214824AE09E01C0
:100CF0002F5F3F4F7901B9010E947B0AF7010190F4
:100D00000020E9F73197AF014E195F09B701C8011B
:100D10000E943E0662960FB6F894DEBF0FBECDBFAE
:100D2000DF91CF911F910F91FF90EF900895CF9396
:100D3000DF9385ED8093BC0080917A0290917B02D5
:100D4000A0917C02B0917D020796A11DB11D23E008
:100D5000B695A795979587952A95D1F72091BC00D0
:100D600024FD03C01092C20236C040917A02509115
:100D70007B0260917C0270917D02452B462B472BB4
:100D800069F30097A105B10541F025E32A95F1F734
:100D900000000197A109B109E1CF8091790291E0AA
:100DA000909378028823B9F0C091B800D091BA002E
:100DB0008091BC008A7B8093BC0060E084E10E944B
:100DC000B60160E085E10E94B6010E94C102D093A5
:100DD000BA00C093B800DF91CF9108951F920F928F
:100DE0000FB60F9211242F933F938F939F93AF933E
:100DF000BF938091ED029091EE02A091EF02B0912D
:100E0000F0023091E80223E0230F2D3758F50196C8
:100E1000A11DB11D2093E8028093ED029093EE0294
:100E2000A093EF02B093F0028091E9029091EA0260
:100E3000A091EB02B091EC020196A11DB11D80932F
:100E4000E9029093EA02A093EB02B093EC02BF9107
:100E5000AF919F918F913F912F910F900FBE0F9067
:100E60001F90189526E8230F0296A11DB11DD2CF21
:100E70001F920F920FB60F9211240BB60F922F9361
:100E80003F934F935F936F937F938F939F93AF9312
:100E9000BF93EF93FF938091B900887F803609F468
:100EA0004DC008F040C0883209F4A9C028F580314F
:100EB00009F49DC0C8F4882309F4FBC0883009F404
:100EC00096C0FF91EF91BF91AF919F918F917F91CC
:100ED0006F915F914F913F912F910F900BBE0F90AB
:100EE0000FBE0F901F901895883109F488C080328A
:100EF00041F78093C10214C0803409F49DC040F4CE
:100F00008033B9F38833E9F68093C10285ECB0C031
:100F1000803509F485C0883509F496C0883489F68F
:100F20000E949706CECF883909F48CC038F58837EF
:100F300029F050F4883611F0803719F683E0809359
:100F4000C2021092C00257C0883809F47BC08039B1
:100F500019F0803809F0B5CF8091C002803208F0D6
:100F600071C0E091C00281E08E0F8093C002809139
:100F7000BB00F0E0E056FD4F80833DC0803B39F080
:100F8000E0F4803A09F479C0883A09F09ACF84E015
:100F90008093C20210929F0210929E02E091080379
:100FA000F0910903199580919E0281110FC081E093
:100FB00080939E0210927E0209C0803C09F4A6CF65
:100FC000883C09F4A3CF883B09F07BCFE0919F02D6
:100FD00081E08E0F80939F02F0E0E258FD4F808108
:100FE0008093BB0090919F0280919E0229C08091C6
:100FF000E7028093BB0085EC8093BC0062CF9091A8
:10100000E6028091E502981758F5E091E60281E04A
:101010008E0F8093E602F0E0EB53FD4F8081E9CF25
:10102000E091E60281E08E0F8093E6028091BB00A2
:10103000F0E0EB53FD4F80839091E6028091E50252
:101040009817C8F285E8D8CFE091E60281E08E0FCC
:101050008093E6028091BB00F0E0EB53FD4F80836C
:101060008091C40281115CCF81E08093C30284EA45
:101070008093BC001092C20224CF85EC8093BC0008
:101080001092C2028091C002803230F4E091C0021E
:10109000F0E0E056FD4F10826091C00270E0E091F8
:1010A0000603F091070380EA92E019951092C002BE
:1010B00008CF1092C10234CF10920D0310920C038E
:1010C00010920B0310920A030E94C10288E691E07D
:1010D000909309038093080389E691E090930703B6
:1010E00080930603EEE0F3E01382128288EE93E031
:1010F000A0E0B0E084839583A683B78386E192E085
:1011000091838083E0E2F3E01382128288E292E02E
:10111000918380838DE084838FEF85838CE0868349
:101120008BE087838AE0808789E0818788E08287F7
:101130001386148615861686178681E00E94F304AE
:10114000EAE1F3E011821082138212821582148286
:1011500050E040E062E472E0CF010C943E06CF9391
:10116000DF93CDB7DEB768970FB6F894DEBF0FBE3A
:10117000CDBF789484B5826084BD84B5816084BD20
:1011800085B5826085BD85B5816085BD80916E0025
:10119000816080936E001092810080918100826056
:1011A0008093810080918100816080938100809193
:1011B00080008160809380008091B1008460809382
:1011C000B1008091B00081608093B0008091910067
:1011D0008260809391008091910081608093910062
:1011E000809190008160809390008091A100826046
:1011F0008093A1008091A10081608093A1008091E3
:10120000A00081608093A000809121018260809382
:101210002101809121018160809321018091200131
:1012200081608093200180917A00846080937A00AD
:1012300080917A00826080937A0080917A00816048
:1012400080937A0080917A00806880937A0010926F
:10125000C1008FB7F8944091ED025091EE02609179
:10126000EF027091F0028FBF8091FB029091FC021F
:10127000A091FD02B091FE02481B590B6A0B7B0B3B
:10128000C090F702D090F802E090F902F090FA02D4
:10129000483E534061057105D0F03FEFC31AD30AB1
:1012A000E30AF30AC092F702D092F802E092F90240
:1012B000F092FA0288519C4FAF4FBF4F8093FB02D0
:1012C0009093FC02A093FD02B093FE02C2CF84E390
:1012D0008093050383E08093040385E080930303F8
:1012E00081E080930103809300038093FF0222EB4F
:1012F00037E0812C46E7942E4EEBA42E41E6B42E27
:10130000E4E6F0E000E911E0C90183709927892B38
:1013100099F4C901BF010E94B00A892B31F4C901B7
:10132000B8010E94B00A892B39F480E8880E81E563
:10133000981E81E0A81EB11C2F5F3F4F263E87E01C
:10134000380711F7C501B4016353734E8C4A9F4FA0
:101350000E942803C701B6010E945603609105034D
:1013600070E06E54784FCE0143960E945F06C7012D
:10137000B6010E9456036091040370E0CE010D9601
:101380000E945F06C701B6010E94560360910303E5
:1013900070E0CE0107960E945F061A8219821C82B5
:1013A0001B821E821D826B897C896115710531F05B
:1013B0004F89588DCE0101960E943E06CE010196BE
:1013C0000E94E705BE01635F7F4F0E940B060E94EB
:1013D000E705BE01695F7F4F0E940B06E3E08A319B
:1013E0009E0769F0FC01608171816115710509F446
:1013F0006FC0448155818AE193E00E943E06CE0190
:1014000001960E94B70582E00E94F3040E94EB045B
:1014100060E080E00E94900540E150E062E372E00D
:1014200080E293E00E94890161E080E00E949005E3
:1014300040E150E063E472E080E293E00E948901C1
:1014400068EB7BE080E090E00E9467020E94EB0482
:10145000CE0107960E94B705CE010D960E94B705F2
:10146000CE0143960E94B70581E1C82ED12C90E0B1
:10147000A92E90E0B92E10E0612F80E00E94900527
:10148000F12CE12C80911E0390911F039601281BE3
:10149000390BE216F30618F5612F8E2D0E94900588
:1014A00040911E0350911F0360911A0370911B031A
:1014B00080E293E00E94890164EF71E080E090E0B7
:1014C0000E9467020E94EB043FEFE31AF30ADACFAF
:1014D0008AE193E00E94A50592CF11E0CDCF1130B3
:1014E000E1F7A114B10439F20E940000C4CF8AE1EF
:1014F00093E00C94B705BB274A3031F4992322F4CA
:10150000BDE2909581959F4F0C94870ABB27FB0104
:101510005527AA27880F991FAA1FA41710F0A41BEC
:1015200083955051B9F7A05DAA3308F0A95DA19346
:10153000009779F7B111B1931192CB010C94A00AE5
:10154000DC01FC01672F71917723E1F7329704C02A
:101550007C916D9370836291AE17BF07C8F30895B5
:1015600097FB072E16F4009407D077FD09D00E9450
:10157000EE0A07FC05D03EF4909581959F4F0895A3
:10158000709561957F4F0895A1E21A2EAA1BBB1B8F
:10159000FD010DC0AA1FBB1FEE1FFF1FA217B3073F
:1015A000E407F50720F0A21BB30BE40BF50B661F55
:1015B000771F881F991F1A9469F760957095809519
:1015C00090959B01AC01BD01CF010895EE0FFF1F67
:1015D000881F8BBF0790F691E02D1994AA1BBB1BA7
:1015E00051E107C0AA1FBB1FA617B70710F0A61B23
:1015F000B70B881F991F5A95A9F780959095BC0144
:10160000CD0108950F931F93CF93DF9382309105FF
:1016100010F482E090E0E0913A03F0913B0330E077
:1016200020E0B0E0A0E0309799F42115310509F4ED
:101630004AC0281B390B24303105D8F58A819B819B
:101640006115710589F1FB0193838283FE0111C04D
:10165000408151810281138148175907E0F04817F2
:10166000590799F4109761F012960C9312971396FC
:101670001C933296CF01DF91CF911F910F91089566
:1016800000933A0310933B03F4CF2115310551F039
:101690004217530738F0A901DB019A01BD01DF01B0
:1016A000F801C1CFEF01F9CF90933B0380933A0348
:1016B000CDCFFE01E20FF31F8193919322503109A8
:1016C00039832883D7CF2091380330913903232BD6
:1016D00041F42091020230910302309339032093A8
:1016E000380320910002309101022115310541F4A7
:1016F0002DB73EB74091040250910502241B350BD3
:10170000E0913803F0913903E217F307A0F42E1BA0
:101710003F0B2817390778F0AC014E5F5F4F241755
:10172000350748F04E0F5F1F50933903409338033D
:10173000819391939FCFF0E0E0E09CCFCF93DF9334
:101740000097E9F0FC01329713821282A0913A03CC
:10175000B0913B03ED0130E020E01097A1F420812F
:101760003181820F931F209138033091390328175C
:10177000390709F061C0F0933903E0933803DF9132
:10178000CF910895EA01CE17DF07E8F54A815B8122
:101790009E0141155105B1F7E901FB83EA834991A7
:1017A0005991C40FD51FEC17FD0761F48081918119
:1017B0000296840F951FE901998388838281938122
:1017C0009B838A83F0E0E0E012968D919C911397C1
:1017D0000097B9F52D913C911197CD010296820F9A
:1017E000931F20913803309139032817390739F6B0
:1017F000309751F510923B0310923A03B09339039E
:10180000A0933803BCCFD383C28340815181840F1E
:10181000951FC817D90761F44E5F5F4F8881998182
:10182000480F591F518340838A819B819383828310
:101830002115310509F0B0CFF0933B03E0933A0353
:101840009ECFFD01DC01C0CF13821282D7CF4F9211
:101850005F926F927F928F929F92AF92BF92CF9240
:10186000DF92EF92FF920F931F93CF93DF938C0140
:10187000009799F4CB01DF91CF911F910F91FF90C9
:10188000EF90DF90CF90BF90AF909F908F907F9020
:101890006F905F904F900C94020BFC01E60FF71FC6
:1018A0009C0122503109E217F30708F4AEC0D901B8
:1018B000CD91DC911197C617D70720F1C530D1051E
:1018C00078F0CE0104978617970750F0C61BD70B08
:1018D0002297C193D1936D937C93CF010E949E0B6D
:1018E000C801DF91CF911F910F91FF90EF90DF9092
:1018F000CF90BF90AF909F908F907F906F905F90B0
:101900004F9008955B01AC1ABD0A4C018C0E9D1ED0
:10191000A0913A03B0913B03512C412CF12CE12CC6
:10192000109731F580913803909139038815990506
:1019300009F05CC04616570608F058C080910002B6
:1019400090910102009741F48DB79EB74091040237
:1019500050910502841B950BE817F90708F055C054
:10196000F0933903E0933803F90171836083B8CFB2
:101970008D919C91119712966C90129713967C9072
:101980001397A815B90559F56C0142E0C40ED11C96
:10199000CA14DB0420F1AC014A195B09DA01129682
:1019A000159780F06282738251834083D9016D93D1
:1019B0007C93E114F10471F0D7011396FC93EE933C
:1019C00012978ECF22968C0F9D1FF90191838083F1
:1019D000F301EFCFF0933B03E0933A0381CF481636
:1019E000590608F42C017D01D3019ACFCB010E9446
:1019F000020B7C01009749F0AE01B8010E94080D6E
:101A0000C8010E949E0B87016BCF10E000E068CFF9
:101A1000FB01DC0102C001900D9241505040D8F70B
:101A20000895FB01DC0101900D920020E1F708957B
:101A300011E0C4E3D1E000E006C0802FFE010E9467
:101A4000E60A2196011DC533D10780E00807A9F7F2
:041A5000F894FFCF38
:101A540000003C0380001F1C1F1E1F1E1F1F1E1F93
:101A64001E1F00000000140309032503DF02020304
:101A7400EF02E002000000009F058901250399029E
:101A84002F002050726F6772616D6D6564206279FA
:101A94003A20002041726D696E2026204D656872DF
:041AA400616E20004F
:00000001FF
