:100000000C943B010C946C010C946C010C946C01ED
:100010000C946C010C946C010C946C010C946C01AC
:100020000C946C010C946C010C946C010C946C019C
:100030000C946C010C946C010C946C010C946C018C
:100040000C946C010C946C010C946C010C946C017C
:100050000C946C010C946C010C946C010C94540580
:100060000C946C010C941E050C94F4040C946C011B
:100070000C946C010C946C010C946C010C946C014C
:100080000C946C010C946C010C946C010C946C013C
:100090000C946C010C946C010C946C010C946C012C
:1000A0000C946C010C946C010C946C010C946C011C
:1000B0000C946C010C946C010C946C010C946C010C
:1000C0000C946C010C946C010C946C010C946C01FC
:1000D0000C946C010C946C010C946C010C946C01EC
:1000E0000C946C010C94C6030C9491010C940203C3
:1000F0000C9424030C94CD010C9455030C94ED0244
:100100000C9410030C940C030C94EF010C94230337
:100110000C94E1010C94E3020C9416030C94F80285
:100120000C94E9020C941E030C94F5020C941A032F
:100130000C94FE020C9427020C94F1020C947402AD
:100140000C949E050C9408030C9428030C948603CD
:100150000C94BE0100002100240027002A002D007D
:100160003000330001010000040107010A01000012
:100170002200250028002B002E003100340002014F
:100180000000050108010B010000200023002600EB
:1001900029002C002F00320000010000030106019D
:1001A00009010505050507050808080802020202FD
:1001B0000A0A080804040404010101010101010103
:1001C0000303030303030303040707070C0C0C0CCE
:1001D0000C0C0C0C020202020606060606060606B7
:1001E0000B0B0B0B0B0B0B0B010210202008081044
:1001F0002040102040800201020108040201010297
:10020000040810204080804020100804020180046F
:1002100002018040201008040201080402010102CA
:1002200004081020408001020408102040800000D3
:100230000A0B02090C0D0E08070304010000000060
:1002400000000000000000000000000000000000AE
:10025000000000000000000000001211100000006B
:10026000000000000000000000000000000000008E
:10027000000000009E0511241FBECFEFD1E2DEBFBB
:10028000CDBF00E00CBF23E0AEE5B2E001C01D929F
:10029000A737B207E1F712E0A0E0B2E0EEE9F6E13D
:1002A00000E00BBF02C007900D92AE35B107D9F741
:1002B00011E0CBE3D1E000E006C021970109802FD7
:1002C000FE010E942F09CA33D10780E00807A9F771
:1002D0000E942B060C944D0B0C94000096E0899F15
:1002E000D0011124AC5FBC4F90967C936E935F97C6
:1002F00091E091969C939197E0917103F091720334
:1003000090917003992339F0309751F0811108C012
:10031000809120031994309719F05C968C91FACF54
:100320000895AF92BF92CF92DF92EF92FF920F9318
:100330001F93CF93DF936C017B018B01040F151F7B
:10034000EB015E01AE18BF08C017D10759F06991E3
:10035000D601ED91FC910190F081E02DC601199537
:10036000892B79F7C501DF91CF911F910F91FF90F4
:10037000EF90DF90CF90BF90AF900895FC01538D28
:10038000448D252F30E0842F90E0821B930B54176F
:1003900010F0CF96089501970895FC01918D828DFC
:1003A000981761F0A28DAE0FBF2FB11D5D968C9195
:1003B000928D9F5F9F73928F90E008958FEF9FEFD4
:1003C0000895FC01918D828D981731F0828DE80F90
:1003D000F11D858D90E008958FEF9FEF0895FC014A
:1003E000918D228D892F90E0805C9F4F821B910917
:1003F0008F739927089587E692E00E94EF0121E02C
:10040000892B09F420E0822F0895FC01A48DA80F08
:10041000B92FB11DA35ABF4F2C91848D90E0019646
:100420008F739927848FA689B7892C93A089B18966
:100430008C91837080648C93938D848D981306C007
:100440000288F389E02D80818F7D80830895EF926B
:10045000FF920F931F93CF93DF93EC0181E0888F7E
:100460009B8D8C8D98131AC0E889F989808185FF4E
:1004700015C09FB7F894EE89FF896083E889F989F0
:1004800080818370806480839FBF81E090E0DF91F2
:10049000CF911F910F91FF90EF900895F62E0B8D45
:1004A00010E00F5F1F4F0F731127E02E8C8D8E1100
:1004B0000CC00FB607FCFACFE889F989808185FF67
:1004C000F5CFCE010E940502F1CFEB8DEC0FFD2F91
:1004D000F11DE35AFF4FF0829FB7F8940B8FEA8922
:1004E000FB8980818062CFCFCF93DF93EC01888D31
:1004F0008823B9F0AA89BB89E889F9898C9185FD9F
:1005000003C0808186FD0DC00FB607FCF7CF8C912C
:1005100085FFF2CF808185FFEDCFCE010E940502DD
:10052000E9CFDF91CF91089580E090E0892B29F009
:100530000E94FB0181110E94000080E090E0892B65
:1005400049F080E090E0892B29F00E9400008111A1
:100550000E94000080E090E0892B49F080E090E06C
:10056000892B29F00E94000081110E94000080E088
:1005700090E0892B49F080E090E0892B29F00E94DF
:10058000000081110C94000008958150823108F020
:100590005AC0E82FF0E08827EF52FD4F8F4F0C94A0
:1005A0002F09F102F502E302E902ED022303F8024A
:1005B000FE02020308030C03100316031A032303AD
:1005C0001E0324032803809180008F77809380008E
:1005D0000895809180008F7DF9CF80918000877F82
:1005E000F5CF84B58F7784BD089584B58F7DFBCF1B
:1005F0008091B0008F778093B00008958091B00013
:100600008F7DF9CF809190008F778093900008952F
:10061000809190008F7DF9CF80919000877FF5CFFA
:100620008091A0008F778093A00008958091A00012
:100630008F7DF9CF8091A000877FF5CF8091200139
:100640008F77809320010895809120018F7DF9CFCD
:1006500080912001877FF5CFCF93DF93282F30E063
:10066000F901E25DFD4F8491F901E851FE4FD4910B
:10067000F901EE55FE4FC491CC23A1F081110E94E7
:10068000C502EC2FF0E0EE0FFF1FE857FE4FA591DB
:10069000B491EC91ED2381E090E009F480E0DF91EA
:1006A000CF91089580E090E0FACF862F0C942C0330
:1006B0001F93CF93DF93282F30E0F901E25DFD4FC8
:1006C0008491F901E851FE4FD491F901EE55FE4FA6
:1006D000C491CC23A9F0162F81110E94C502EC2FE2
:1006E000F0E0EE0FFF1FE259FE4FA591B4918FB7D6
:1006F000F894EC91111108C0D095DE23DC938FBFE4
:10070000DF91CF911F910895DE2BF8CF862F642FB4
:100710000C945803CF93DF9390E0FC01E851FE4F17
:1007200024918E559E4FFC0184918823C9F090E05E
:10073000880F991FFC01EC5AFE4FA591B491FC0162
:10074000E259FE4FC591D49161110DC09FB7F89445
:100750008C91209582238C938881282328839FBFA6
:10076000DF91CF910895623051F49FB7F8943C9196
:10077000822F809583238C93E8812E2BEFCF8FB728
:10078000F894EC912E2B2C938FBFEACF862F642FF9
:100790000C948A033FB7F8948091630290916402AD
:1007A000A0916502B091660226B5A89B05C02F3FB7
:1007B00019F00196A11DB11D3FBFBA2FA92F982F87
:1007C0008827BC01CD01620F711D811D911D42E082
:1007D000660F771F881F991F4A95D1F708952FB785
:1007E000F89460915F027091600280916102909133
:1007F00062022FBF08950F931F930E94EF0360932F
:100800006F0270937002809371029093720287E678
:1008100092E00E94E10197FF1DC00E94EF0300914A
:100820006F02109170022091710230917202601B70
:10083000710B820B930B00916B0210916C02209153
:100840006D0230916E026017710782079307F8F20C
:100850008FEF9FEF1F910F9108950F931F93CF93E9
:10086000DF93C82FD62F86E0C89FF0011124EC5FDC
:10087000FC4F11A2878D90A181309105F1F058F0C5
:1008800082309105F1F1039709F440C0DF91CF91D7
:100890001F910F9108956623C9F361E070E08C2FDA
:1008A0000E946E010E94EF0360935C0370935D03EE
:1008B00080935E0390935F03E9CF0E94EF03009162
:1008C0005C0310915D0320915E0330915F03AB01E7
:1008D000BC01401B510B620B730B80916E03909116
:1008E0006F03B0E0A0E084179507A607B70748F4A8
:1008F00062E070E08C2FDF91CF911F910F910C94EB
:100900006E0163E070E0D111C1CFF4CF70E060E020
:10091000F1CF4F925F926F927F92AF92BF92CF9240
:10092000DF92EF92FF920F931F93CF93DF935C01BF
:100930000EE112E0D0E0C0E0CA15DB0574F5F80165
:1009400080810E5F1F4F61E00E9458030E94CA031E
:100950002B013C0184EFC82EDD24D394E12CF12C33
:100960000E94CA036419750986099709683E734095
:1009700081059105A8F3F1E0CF1AD108E108F1084B
:1009800028EE420E23E0521E611C711CC114D104DA
:10099000E104F10429F72196CFCFDF91CF911F9188
:1009A0000F91FF90EF90DF90CF90BF90AF907F902E
:1009B0006F905F904F900895CF93DF93CEE1D2E098
:1009C0008881229660E00E94580382E0C033D807F5
:1009D000B9F7DF91CF91089542E050E06CE472E006
:1009E00087E692E00C9491011F920F920FB60F923E
:1009F00011240BB60F922F933F934F935F936F93F6
:100A00007F938F939F93AF93BF93EF93FF9387E66B
:100A100092E00E940502FF91EF91BF91AF919F91EB
:100A20008F917F916F915F914F913F912F910F9097
:100A30000BBE0F900FBE0F901F9018951F920F9234
:100A40000FB60F9211240BB60F922F938F939F9393
:100A5000EF93FF93E0917702F09178028081E0912B
:100A60007D02F0917E0282FD1DC090818091800206
:100A70008F5F8F7320918102821741F0E091800295
:100A8000F0E0E959FD4F958F80938002FF91EF913F
:100A90009F918F912F910F900BBE0F900FBE0F90D3
:100AA0001F9018958081F2CF1F920F920FB60F9270
:100AB00011242F933F938F939F93AF93BF93809174
:100AC0005F0290916002A0916102B0916202309148
:100AD0005E0223E0230F2D3758F50196A11DB11DAD
:100AE00020935E0280935F0290936002A093610264
:100AF000B09362028091630290916402A0916502BA
:100B0000B09166020196A11DB11D8093630290937E
:100B10006402A0936502B0936602BF91AF919F916A
:100B20008F913F912F910F900FBE0F901F901895AE
:100B300026E8230F0296A11DB11DD2CF10926A02A2
:100B40001092690288EE93E0A0E0B0E080936B021F
:100B500090936C02A0936D02B0936E0284E392E0D6
:100B6000909368028093670285EC90E09093740202
:100B70008093730284EC90E09093760280937502E8
:100B800080EC90E0909378028093770281EC90E083
:100B900090937A028093790282EC90E090937C02A9
:100BA00080937B0286EC90E090937E0280937D029E
:100BB000109280021092810210928202109283029F
:100BC0001092060310920A031092090310920B036D
:100BD00086E492E09093050380930403E0E2F3E05F
:100BE0001082148213821582369683E0EC35F80762
:100BF000B9F784E092E0909367038093660380E006
:100C000092E0909369038093680384E080936A0381
:100C100080936B0388E092E0909365038093640374
:100C20008AE090E090936D0380936C0384EF91E0F1
:100C300090936F0380936E0310927203109271036E
:100C4000109260031092610310926203109263038A
:100C5000109270030895CF93DF931F921F92CDB728
:100C6000DEB7789484B5826084BD84B5816084BD2C
:100C700085B5826085BD85B5816085BD80916E003A
:100C8000816080936E00109281008091810082606B
:100C900080938100809181008160809381008091A8
:100CA00080008160809380008091B1008460809397
:100CB000B1008091B00081608093B000809191007C
:100CC0008260809391008091910081608093910077
:100CD000809190008160809390008091A10082605B
:100CE0008093A1008091A10081608093A1008091F8
:100CF000A00081608093A000809121018260809398
:100D00002101809121018160809321018091200146
:100D100081608093200180917A00846080937A00C2
:100D200080917A00826080937A0080917A0081605D
:100D300080937A0080917A00806880937A00109284
:100D4000C100E0917702F091780282E08083E09127
:100D50007302F09174021082E0917502F0917602B4
:100D60008FEC808310927F02E0917B02F0917C02F5
:100D700086E08083E0917902F0917A02808180613F
:100D80008083E0917902F0917A028081886080838B
:100D9000E0917902F0917A02808180688083E0910D
:100DA0007902F0917A0280818F7D80830EE112E0DA
:100DB00040E3E42E42E0F42EF80180810E5F1F4FE5
:100DC00061E00E948A03E016F106B1F70E94DC049C
:100DD000812C912C54018394CE0101966C0191E0F9
:100DE000909370030E94EF030091600310916103E0
:100DF0002091620330916303AB01BC01401B510B96
:100E0000620B730B80916C0390916D03B0E0A0E0D6
:100E100084179507A607B70708F06DC110E0809109
:100E20006A03181760F4E0916603F0916703E10F1D
:100E3000F11D62E080810E948A031F5FF0CF312C98
:100E400080916B03381608F061C0E32CF12CE0911F
:100E50006803F0916903EE0DFF1D61E080810E943F
:100E60008A03E0916803F0916903EE0DFF1D60E0D5
:100E700080810E945803D501C401032C04C0880F4F
:100E8000991FAA1FBB1F0A94D2F72C013C01609442
:100E90007094212C80916A03281608F5022D10E029
:100EA000E0916603F0916703E00FF11F80810E94DB
:100EB0002C030C5F1F4F000F111FF801EC5FFC4F5C
:100EC000892B41F4808191818429952991838083A4
:100ED0002394E0CF8081918186219721F7CFE09103
:100EE0006803F0916903EE0DFF1D61E080810E94AF
:100EF00058038091680390916903E80EF91E60E041
:100F0000F70180810E948A0333949ACF04E013E0B2
:100F10007801F701878D90A1892B31F4148E8FEF22
:100F20009FEF968F858F11A296E0E90EF11CE0E409
:100F3000EE16E3E0FE0669F7512C80916A0358161D
:100F400008F053C0412C652C712C660C771CC30132
:100F5000845F9C4F3C0120916B03421608F043C014
:100F6000F30160817181042C02C0769567950A9423
:100F7000E2F7529E90011124240D311DE4E0F3E0CC
:100F800080E0458D568D2417350709F410C18F5F19
:100F900036968A30B1F760FF24C0E4E0F3E090E0D9
:100FA00080E0448D411118C0E0916403F091650325
:100FB000E20FF31F408156E0589FF001599FF00D5A
:100FC0001124EC5FFC4F448F368F258F10A2178EB3
:100FD00061E00E942D0405C0019636968A30910585
:100FE00001F74394B8CF5394A8CF712CF80181A195
:100FF0008111782E0A5F1F4FE016F106B9F70E94A3
:10100000EF03609360037093610380936203909396
:101010006303772009F46FC080912503882309F4C6
:101020006AC08091230390912403019709F063C063
:1010300060912003611162C087E692E00E94EF0197
:10104000181619060CF054C00E94FB03FC0197FD12
:101050009DC08D32910521F0C0970A9708F08FC08E
:10106000412C512C320110E0E130F105D9F0ED3284
:10107000F10509F489C0CF01C0970A9798F4AAE056
:10108000B0E0A30192010E9415092F01FF0F66082D
:101090007708460E571E681E791EF0E34F1A510856
:1010A0006108710887E692E00E94CD010E94FB036F
:1010B000FC01C0970A97C0F2E130F105A9F21123B3
:1010C00041F07094609450944094411C511C611CF8
:1010D000711C5AE04516510408F05CC0C2010E9420
:1010E00089040E94DC046CE087E692E00E942702FB
:1010F0000E94940274CE109270039ECF80ED860FF2
:101100008A3028F087E692E00E94270295CF698313
:101110001A82F60101900020E9F731977F01EC185F
:10112000FD08B7016F5F7F4F90E080E00E945C0A8E
:101130008C01009709F1FC011082B6010E94460B58
:10114000A701B80187E692E00E94910160E070E09B
:10115000CB010115110519F0C8010E94D908CB0176
:101160000E9489040E94DC040115110509F464CF72
:10117000C8010E94D30960CFF12CE12CE1CF87E6B2
:1011800092E00E94CD0160CF11E08CCF412C512C18
:1011900032019FCF0E94EC044EE050E06FE472E019
:1011A00087E692E00E9491010E94EC04A1CF617059
:1011B00010CF1F93FC0199278827BC01E894119157
:1011C0001032E9F3193010F01E30C8F31B3251F021
:1011D0001D3249F4689406C00E940009610F711D18
:1011E000811D911D119110531A30B0F33EF490956A
:1011F0008095709561957F4F8F4F9F4F1F910895F8
:10120000592F482F372F262F660F771F881F991FBA
:10121000660F771F881F991F620F731F841F951F0A
:10122000660F771F881F991F08950E942009A59FA8
:10123000900DB49F900DA49F800D911D11240895D1
:10124000A29FB001B39FC001A39F700D811D112407
:10125000911DB29F700D811D1124911D0895EE0FF7
:10126000FF1F881F8BBF0790F691E02D19940F93F5
:101270001F93CF93DF938230910510F482E090E0CA
:10128000E0917503F091760330E020E0B0E0A0E05B
:10129000309799F42115310509F44AC0281B390B00
:1012A00024303105D8F58A819B816115710589F15A
:1012B000FB0193838283FE0111C040815181028131
:1012C000138148175907E0F04817590799F4109708
:1012D00061F012960C93129713961C933296CF01DD
:1012E000DF91CF911F910F91089500937503109393
:1012F0007603F4CF2115310551F04217530738F02A
:10130000A901DB019A01BD01DF01F801C1CFEF01A5
:10131000F9CF9093760380937503CDCFFE01E20F52
:10132000F31F819391932250310939832883D7CFBA
:101330002091730330917403232B41F420911A02FE
:1013400030911B0230937403209373032091180291
:10135000309119022115310541F42DB73EB7409166
:101360001C0250911D02241B350BE0917303F09178
:101370007403E217F307A0F42E1B3F0B281739075D
:1013800078F0AC014E5F5F4F2417350748F04E0FE1
:101390005F1F5093740340937303819391939FCF86
:1013A000F0E0E0E09CCFCF93DF930097E9F0FC0101
:1013B000329713821282A0917503B0917603ED01EA
:1013C00030E020E01097A1F420813181820F931F3B
:1013D00020917303309174032817390709F061C015
:1013E000F0937403E0937303DF91CF910895EA01C2
:1013F000CE17DF07E8F54A815B819E014115510553
:10140000B1F7E901FB83EA8349915991C40FD51FD4
:10141000EC17FD0761F4808191810296840F951F7E
:10142000E90199838883828193819B838A83F0E099
:10143000E0E012968D919C9113970097B9F52D914C
:101440003C911197CD010296820F931F2091730357
:10145000309174032817390739F6309751F51092F7
:10146000760310927503B0937403A0937303BCCFFB
:10147000D383C28340815181840F951FC817D90738
:1014800061F44E5F5F4F88819981480F591F5183E6
:1014900040838A819B81938382832115310509F0E2
:1014A000B0CFF0937603E09375039ECFFD01DC018E
:1014B000C0CF13821282D7CF4F925F926F927F92EA
:1014C0008F929F92AF92BF92CF92DF92EF92FF9254
:1014D0000F931F93CF93DF938C01009799F4CB0167
:1014E000DF91CF911F910F91FF90EF90DF90CF9000
:1014F000BF90AF909F908F907F906F905F904F9034
:101500000C943709FC01E60FF71F9C0122503109AA
:10151000E217F30708F4AEC0D901CD91DC91119721
:10152000C617D70720F1C530D10578F0CE01049752
:101530008617970750F0C61BD70B2297C193D193FC
:101540006D937C93CF010E94D309C801DF91CF91A5
:101550001F910F91FF90EF90DF90CF90BF90AF90D1
:101560009F908F907F906F905F904F9008955B0158
:10157000AC1ABD0A4C018C0E9D1EA0917503B09152
:101580007603512C412CF12CE12C109731F58091F0
:101590007303909174038815990509F05CC0461691
:1015A000570608F058C080911802909119020097D0
:1015B00041F48DB79EB740911C0250911D02841BCF
:1015C000950BE817F90708F055C0F0937403E09302
:1015D0007303F90171836083B8CF8D919C9111974A
:1015E00012966C90129713967C901397A815B905D4
:1015F00059F56C0142E0C40ED11CCA14DB0420F181
:10160000AC014A195B09DA011296159780F06282E3
:10161000738251834083D9016D937C93E114F1046B
:1016200071F0D7011396FC93EE9312978ECF22960A
:101630008C0F9D1FF90191838083F301EFCFF0930D
:101640007603E093750381CF4816590608F42C0100
:101650007D01D3019ACFCB010E9437097C0100970D
:1016600049F0AE01B8010E943D0BC8010E94D309A8
:1016700087016BCF10E000E068CFFB01DC0102C006
:1016800001900D9241505040D8F70895FB01DC01C4
:0E16900001900D920020E1F70895F894FFCF2D
:10169E00161718191A1B1C1D3738392F3435362AD0
:1016AE003132332D63303D2B00007703800026004E
:1016BE002500240023002200210020001F001E0010
:1016CE000000000027029101BE017402EF01CD015E
:1016DE00E10100000000C603860355030D0A0069F0
:0E16EE006E76616C6964206E756D62657200C7
:00000001FF
