:100000000C9431010C9462010C9462010C94620115
:100010000C9462010C9462010C9462010C946201D4
:100020000C9462010C9462010C9462010C946201C4
:100030000C9462010C9462010C9462010C946201B4
:100040000C9462010C9462010C9462010C946201A4
:100050000C9462010C9462010C9462010C942D06C4
:100060000C9462010C94F7050C94CD050C9462017C
:100070000C9462010C9462010C9462010C94620174
:100080000C9462010C9462010C9462010C94620164
:100090000C9462010C9462010C9462010C94620154
:1000A0000C9462010C9462010C9462010C94620144
:1000B0000C9462010C9462010C9462010C94620134
:1000C0000C9462010C9462010C9462010C94620124
:1000D0000C9462010C9462010C9462010C94620114
:1000E0000C9462010C94E7020C9411080C941D030B
:1000F0000C9417030C9439030C949A030C94BF01CD
:100100000C9419020C94E1010C9402030C94B001BC
:100110000C940A030C94FE020C943D030C940D0302
:100120000C9413030C94D3010C9483010C94660279
:100130000C9433030C9421030C942F030C94EC02C5
:100140000C949B030C9477060C9406030C942B03DD
:100150000C94ED040C94250300000A0B02090C0D0D
:100160000E0807030401000000000000000000006A
:10017000000000000000000000000000000000007F
:10018000000000001211100000000000000000003C
:10019000000000000000000000000000000000005F
:1001A0002200250028002B002E003100340002011F
:1001B0000000050108010B010000210024002700B8
:1001C0002A002D0030003300010100000401070166
:1001D0000A010505050507050808080802020202CC
:1001E0000A0A0808040404040101010101010101D3
:1001F0000303030303030303040707070C0C0C0C9E
:100200000C0C0C0C02020202060606060606060686
:100210000B0B0B0B0B0B0B0B010210202008081013
:100220002040102040800201020108040201010266
:10023000040810204080804020100804020180043F
:10024000020180402010080402010804020101029A
:100250000408102040800102040810204080770626
:10026000110811241FBECFEFD1E2DEBFCDBF00E0E9
:100270000CBF23E0A4E8B2E001C01D92A235B20792
:10028000E1F712E0A0E0B2E0E4EAF4E100E00BBF45
:1002900002C007900D92A438B107D9F711E0C0E36E
:1002A000D1E000E006C021970109802FFE010E94E5
:1002B0001908CF32D10780E00807A9F70E94CD06C0
:1002C0000C94400A0C94000090E0FC01E85EFD4FA5
:1002D00024918E529E4FFC018491882399F090E0E6
:1002E000880F991FFC01E854FE4FA591B491FC01C1
:1002F000E256FE4F859194918FB7F894EC91E22BE2
:10030000EC938FBF0895AF92BF92CF92DF92EF929E
:10031000FF920F931F93CF93DF936C017B018B01AF
:10032000040F151FEB015E01AE18BF08C017D107FF
:1003300059F06991D601ED91FC910190F081E02D89
:10034000C6011995892B79F7C501DF91CF911F91CE
:100350000F91FF90EF90DF90CF90BF90AF900895F6
:10036000FC01538D448D252F30E0842F90E0821BBB
:10037000930B541710F0CF96089501970895FC0140
:10038000918D828D981761F0A28DAE0FBF2FB11D98
:100390005D968C91928D9F5F9F73928F90E00895F0
:1003A0008FEF9FEF0895FC01918D828D981731F0AA
:1003B000828DE80FF11D858D90E008958FEF9FEFFE
:1003C0000895FC01918D228D892F90E0805C9F4FD4
:1003D000821B91098F73992708958DE892E00E94FE
:1003E000E10121E0892B09F420E0822F0895FC012E
:1003F000A48DA80FB92FB11DA35ABF4F2C91848D86
:1004000090E001968F739927848FA689B7892C93E2
:10041000A089B1898C91837080648C93938D848D35
:10042000981306C00288F389E02D80818F7D808338
:100430000895EF92FF920F931F93CF93DF93EC01F8
:1004400081E0888F9B8D8C8D98131AC0E889F9897B
:10045000808185FF15C09FB7F894EE89FF8960837E
:10046000E889F98980818370806480839FBF81E0FF
:1004700090E0DF91CF911F910F91FF90EF90089541
:10048000F62E0B8D10E00F5F1F4F0F731127E02E1C
:100490008C8D8E110CC00FB607FCFACFE889F98954
:1004A000808185FFF5CFCE010E94F701F1CFEB8D62
:1004B000EC0FFD2FF11DE35AFF4FF0829FB7F89428
:1004C0000B8FEA89FB8980818062CFCFCF93DF9346
:1004D000EC01888D8823B9F0AA89BB89E889F9895C
:1004E0008C9185FD03C0808186FD0DC00FB607FC91
:1004F000F7CF8C9185FFF2CF808185FFEDCFCE01C4
:100500000E94F701E9CFDF91CF91089580E090E05C
:10051000892B29F00E94ED0181110E94000080E0EA
:1005200090E0892B49F080E090E0892B29F00E942F
:10053000000081110E94000080E090E0892B49F0CA
:1005400080E090E0892B29F00E94000081110E9438
:10055000000080E090E0892B49F080E090E0892B5A
:1005600029F00E94000081110C9400000895282FAA
:1005700030E0F901E85AFE4F9491F901E85EFD4F31
:1005800044912E523E4FF9012491222309F435C0A3
:10059000992311F191509231F8F4E92FF0E0882776
:1005A000EB52FD4F8F4F0C94190806030A03E70224
:1005B000FE020203EC020D03130317031D032103C4
:1005C00025032B032F03EC02330339033D038091F2
:1005D00080008F7780938000E22FF0E0EE0FFF1F06
:1005E000E256FE4FA591B4918FB7F894EC9161114A
:1005F00048C040954E234C938FBF08958091800052
:100600008F7DE8CF80918000877FE4CF84B58F779E
:1006100084BDE2CF84B58F7DFBCF8091B0008F7712
:100620008093B000D9CF8091B0008F7DF9CF8091B9
:1006300090008F7780939000CFCF809190008F7D36
:10064000F9CF80919000877FF5CF8091A0008F77C0
:100650008093A000C1CF8091A0008F7DF9CF8091C1
:10066000A000877FF5CF809120018F7780932001B4
:10067000B3CF809120018F7DF9CF80912001877FBA
:10068000F5CF4E2BB8CF3FB7F89480918902909167
:100690008A02A0918B02B0918C0226B5A89B05C05E
:1006A0002F3F19F00196A11DB11D3FBFBA2FA92FF1
:1006B000982F8827BC01CD01620F711D811D911DEE
:1006C00042E0660F771F881F991F4A95D1F708955A
:1006D0008F929F92AF92BF92CF92DF92EF92FF9252
:1006E0004B015C010E9443036B017C010E944303A8
:1006F0006C197D098E099F09683E7340810591053B
:10070000A8F321E0821A9108A108B10888EEC80E6A
:1007100083E0D81EE11CF11C81149104A104B104F2
:1007200029F7FF90EF90DF90CF90BF90AF909F9010
:100730008F900895089590E080E00895CF93DF931F
:10074000EC0160E08E810E94B70261E08E810E9420
:10075000B70260E08E810E94B7028BE891E00197BA
:10076000F1F7DF91CF910895CF92DF92EF92FF9250
:100770000F931F93CF93DF936C017C0187E0E80E0A
:10078000F11CD0E0C0E0062F10E0B8010C2E02C032
:10079000759567950A94E2F76170F70181917F0181
:1007A0000E94B7022196C430D10579F7C601DF91C6
:1007B000CF911F910F91FF90EF90DF90CF900C940D
:1007C0009E03CF92DF92EF92FF920F931F93CF93EE
:1007D000DF93EC01F62E642F8C810E94B7028D818D
:1007E0008F3F19F060E00E94B7020F2D10E08F8557
:1007F00084FF25C06E0187E0C80ED11CF12CE12CCE
:10080000B8010E2C02C0759567950A94E2F76170E5
:10081000F60181916F010E94B702FFEFEF1AFF0A04
:1008200088E0E816F10461F7CE01DF91CF911F91C6
:100830000F91FF90EF90DF90CF900C949E03B80142
:1008400084E0759567958A95E1F7CE010E94B4031F
:100850006F2DCE01DF91CF911F910F91FF90EF90FF
:10086000DF90CF900C94B40340E0682F8AE293E0CD
:100870000C94E10381E00E9434048BE39FE1019733
:10088000F1F70895CF93DF93823029F490913903E3
:1008900098609093390380933D0310923E0380E467
:1008A00080933F0380E18093400380E58093410380
:1008B00080912E030E94640180912F038F3F11F0DD
:1008C0000E946401809130030E946401CAE2D3E077
:1008D0009E012A5233408091390384FD0AC084E08E
:1008E00090E02196281739073CF48E810E9464011C
:1008F000EFCF88E090E0F5CF8BE39DE00197F1F733
:1009000060E080912E030E94B70260E08091300386
:100910000E94B70280912F038F3F19F060E00E9480
:10092000B7028091390384FD34C063E08AE293E02A
:100930000E94B403CBE4D6E4CE010197F1F763E063
:100940008AE293E00E94B4032197F1F763E08AE220
:1009500093E00E94B40383E592E00197F1F762E02F
:100960008AE293E00E94B4038091390380620E947E
:10097000340484E080933A038CE00E9434040E94A3
:100980003A0482E080933B0386E0DF91CF910C94A0
:10099000340480620E9434048BE496E40197F1F7FA
:1009A0008091390380620E94340483E592E00197CC
:1009B000F1F78091390380620E943404D5CF909181
:1009C0003D03891710F08FEF890FE82FF0E0E65D07
:1009D000FC4F848980680C94340441E00E94E10358
:1009E00081E090E00895FC0101900020E9F7319743
:1009F000AF01481B590BBC018AE293E00C948301C0
:100A0000FC0124813581FB01448155812417350780
:100A1000E1F4FC0180819181FB016081718100978B
:100A2000D1F061157105A1F4232BC1F0FC01808187
:100A300090E008C0232B91F0FB01808190E091951C
:100A40008195910921E0892B09F020E0822F0895FA
:100A50000E94300AF7CF6115710561F721E0F6CFEA
:100A60000F931F93CF93DF93EC01888199810097B7
:100A700059F02A813B812617370730F081E0DF915A
:100A8000CF911F910F9108958B016F5F7F4F0E944F
:100A90004609009759F0998388831B830A832C8128
:100AA0003D81232B59F7FC011082E8CF80E0E7CF8E
:100AB000EF92FF920F931F93CF93DF931F921F929A
:100AC000CDB7DEB78C0169831A82FC01E480F58022
:100AD000FFEFEF1AFF0AB7010E943005882381F06B
:100AE000F8012081318184819581BE016F5F7F4F44
:100AF000820F931F0E94390AF801F582E48281E097
:100B00000F900F90DF91CF911F910F91FF90EF9079
:100B10000895FC0180819181009711F00C94BD082B
:100B20000895EF92FF920F931F93CF93DF93EC0101
:100B30007B01198218821B821A821D821C82FB0192
:100B400001900020E9F731978F01061B170BB801C0
:100B50000E94300528813981811113C0211531058A
:100B600019F0C9010E94BD08198218821D821C82D9
:100B70001B821A82DF91CF911F910F91FF90EF900E
:100B800008951D830C83B701C901DF91CF911F9197
:100B90000F91FF90EF900C94390A1F920F920FB6AD
:100BA0000F9211240BB60F922F933F934F935F93A5
:100BB0006F937F938F939F93AF93BF93EF93FF9325
:100BC0008DE892E00E94F701FF91EF91BF91AF9104
:100BD0009F918F917F916F915F914F913F912F9155
:100BE0000F900BBE0F900FBE0F901F9018951F9285
:100BF0000F920FB60F9211240BB60F922F938F9373
:100C00009F93EF93FF93E0919D02F0919E0280816C
:100C1000E091A302F091A40282FD1DC09081809119
:100C2000A6028F5F8F732091A702821741F0E09197
:100C3000A602F0E0E357FD4F958F8093A602FF9147
:100C4000EF919F918F912F910F900BBE0F900FBE40
:100C50000F901F9018958081F2CF1F920F920FB6C0
:100C60000F9211242F933F938F939F93AF93BF9332
:100C70008091850290918602A0918702B0918802AE
:100C80003091840223E0230F2D3758F50196A11DE2
:100C9000B11D209384028093850290938602A093D5
:100CA0008702B09388028091890290918A02A09174
:100CB0008B02B0918C020196A11DB11D8093890217
:100CC00090938A02A0938B02B0938C02BF91AF9154
:100CD0009F918F913F912F910F900FBE0F901F907A
:100CE000189526E8230F0296A11DB11DD2CFEDE87D
:100CF000F2E01382128288EE93E0A0E0B0E08483F9
:100D00009583A683B7838AE092E09183808385EC04
:100D100090E09587848784EC90E09787868780ECC5
:100D200090E0918B808B81EC90E0938B828B82ECB6
:100D300090E0958B848B86EC90E0978B868B118E60
:100D4000128E138E148E64E272E088E493E00E94A7
:100D5000910569E272E082E493E00E949105EAE283
:100D6000F3E0138212828CE192E0918380838DE024
:100D700084838FEF85838CE086838BE087838AE092
:100D8000808789E0818788E08287138614861586AC
:100D90001686178681E00C944204CF93DF93CDB77B
:100DA000DEB72C970FB6F894DEBF0FBECDBF789498
:100DB00084B5826084BD84B5816084BD85B5826060
:100DC00085BD85B5816085BD80916E008160809311
:100DD0006E0010928100809181008260809381007A
:100DE000809181008160809381008091800081608A
:100DF000809380008091B10084608093B1008091E5
:100E0000B00081608093B0008091910082608093F7
:100E10009100809191008160809391008091900079
:100E20008160809390008091A10082608093A100F6
:100E30008091A10081608093A1008091A0008160D9
:100E40008093A00080912101826080932101809194
:100E50002101816080932101809120018160809334
:100E6000200180917A00846080937A0080917A00DA
:100E7000826080937A0080917A00816080937A000A
:100E800080917A00806880937A001092C100E0918E
:100E90009D02F0919E0282E08083E0919902F091A0
:100EA0009A021082E0919B02F0919C028FEC808369
:100EB0001092A502E091A102F091A20286E0808347
:100EC000E0919F02F091A002808180618083E09197
:100ED0009F02F091A002808188608083E0919F0250
:100EE000F091A002808180688083E0919F02F09160
:100EF000A00280818F7D808382E00E9442040E9454
:100F00003A0480E00E94DF048EE292E00E94F30443
:100F100081E00E94DF048FE392E00E94F30468EB1B
:100F20007BE080E090E00E9468030E943A046EE358
:100F300072E0CE0107960E9491056EE372E0CE0149
:100F400001960E94910580E00E94DF048DE892E006
:100F50000E94E10118161906CCF78DE892E00E9474
:100F6000BF01182F8A3261F041E0682F8AE293E0D6
:100F70000E94E103612FCE0107960E945805E6CF3B
:100F80000E943A0480E00E94DF048DE892E00E9413
:100F9000E10118161906CCF78DE892E00E94BF0116
:100FA000182F8A3261F041E0682F8AE293E00E94B4
:100FB000E103612FCE0101960E945805E6CF0E9401
:100FC0003A0480E00E94DF0468E473E0CE010796F3
:100FD0000E9400058823F9F062E473E0CE010196D7
:100FE0000E9400058823D1F080E592E00E94F3047E
:100FF00060ED77E080E090E00E9468030E943A0490
:10100000CE0101960E948905CE0107960E948905AE
:101010000E9486028CCF81E692E0E8CF82E792E0E0
:10102000E5CF82E493E00E94890588E493E00C9484
:101030008905EE0FFF1F881F8BBF0790F691E02DEB
:1010400019940F931F93CF93DF938230910510F47F
:1010500082E090E0E0915003F091510330E020E015
:10106000B0E0A0E0309799F42115310509F44AC0A9
:10107000281B390B24303105D8F58A819B816115F5
:10108000710589F1FB0193838283FE0111C04081C8
:1010900051810281138148175907E0F04817590719
:1010A00099F4109761F012960C93129713961C9373
:1010B0003296CF01DF91CF911F910F910895009348
:1010C000500310935103F4CF2115310551F042170D
:1010D000530738F0A901DB019A01BD01DF01F801D6
:1010E000C1CFEF01F9CF9093510380935003CDCF3F
:1010F000FE01E20FF31F819391932250310939834E
:101100002883D7CF20914E0330914F03232B41F4F6
:10111000209102023091030230934F0320934E033B
:1011200020910002309101022115310541F42DB7C3
:101130003EB74091040250910502241B350BE0910B
:101140004E03F0914F03E217F307A0F42E1B3F0B61
:101150002817390778F0AC014E5F5F4F2417350729
:1011600048F04E0F5F1F50934F0340934E038193FF
:1011700091939FCFF0E0E0E09CCFCF93DF93009777
:10118000E9F0FC01329713821282A0915003B091D2
:101190005103ED0130E020E01097A1F4208131816E
:1011A000820F931F20914E0330914F032817390768
:1011B00009F061C0F0934F03E0934E03DF91CF91AC
:1011C0000895EA01CE17DF07E8F54A815B819E01A9
:1011D00041155105B1F7E901FB83EA834991599122
:1011E000C40FD51FEC17FD0761F480819181029631
:1011F000840F951FE90199838883828193819B8362
:101200008A83F0E0E0E012968D919C91139700970D
:10121000B9F52D913C911197CD010296820F931F44
:1012200020914E0330914F032817390739F6309734
:1012300051F51092510310925003B0934F03A093B5
:101240004E03BCCFD383C28340815181840F951F4D
:10125000C817D90761F44E5F5F4F88819981480FA5
:10126000591F518340838A819B81938382832115F7
:10127000310509F0B0CFF0935103E09350039ECFB6
:10128000FD01DC01C0CF13821282D7CF4F925F9253
:101290006F927F928F929F92AF92BF92CF92DF9286
:1012A000EF92FF920F931F93CF93DF938C010097E0
:1012B00099F4CB01DF91CF911F910F91FF90EF90A7
:1012C000DF90CF90BF90AF909F908F907F906F9066
:1012D0005F904F900C942108FC01E60FF71F9C01D2
:1012E00022503109E217F30708F4AEC0D901CD91BD
:1012F000DC911197C617D70720F1C530D10578F0DA
:10130000CE0104978617970750F0C61BD70B22977C
:10131000C193D1936D937C93CF010E94BD08C80106
:10132000DF91CF911F910F91FF90EF90DF90CF90C1
:10133000BF90AF909F908F907F906F905F904F90F5
:1013400008955B01AC1ABD0A4C018C0E9D1EA09144
:101350005003B0915103512C412CF12CE12C1097EA
:1013600031F580914E0390914F038815990509F04E
:101370005CC04616570608F058C080910002909154
:101380000102009741F48DB79EB74091040250913D
:101390000502841B950BE817F90708F055C0F09378
:1013A0004F03E0934E03F90171836083B8CF8D91B1
:1013B0009C91119712966C90129713967C901397AC
:1013C000A815B90559F56C0142E0C40ED11CCA1428
:1013D000DB0420F1AC014A195B09DA01129615977A
:1013E00080F06282738251834083D9016D937C9334
:1013F000E114F10471F0D7011396FC93EE93129768
:101400008ECF22968C0F9D1FF90191838083F3016B
:10141000EFCFF0935103E093500381CF4816590664
:1014200008F42C017D01D3019ACFCB010E94210841
:101430007C01009749F0AE01B8010E94270AC8015B
:101440000E94BD0887016BCF10E000E068CFFB0170
:10145000DC0102C001900D9241505040D8F7089530
:10146000FB01DC018D91019080190110D9F3990BDA
:101470000895FB01DC0101900D920020E1F7089531
:1014800011E0C0E3D1E000E006C0802FFE010E9421
:1014900019082196011DC133D10780E00807A9F77B
:0414A000F894FFCFEE
:1014A4000000520380000000000019028301B00113
:1014B4006602E101BF01D30100000000ED048301D5
:1014C4009B039A0341424344003132333400205099
:1014D400726F6772616D6D65642062793A200020D5
:1014E40041726D696E2026204D656872616E200020
:1014F400456E746572207375636365737366756C8A
:1015040000557365726E616D6520696E76616C69F4
:101514006400202057726F6E672070617373776F59
:0415240072642000CD
:00000001FF
